{"abi":[{"type":"constructor","inputs":[{"name":"_systemVerifier","type":"address","internalType":"address"},{"name":"_trustedForwarder","type":"address","internalType":"address"}],"stateMutability":"nonpayable"},{"type":"function","name":"getHospitalDetails","inputs":[{"name":"_hospital","type":"address","internalType":"address"}],"outputs":[{"name":"name","type":"string","internalType":"string"},{"name":"licenseNumber","type":"string","internalType":"string"},{"name":"wallet","type":"address","internalType":"address"},{"name":"isVerified","type":"bool","internalType":"bool"}],"stateMutability":"view"},{"type":"function","name":"hospitals","inputs":[{"name":"","type":"address","internalType":"address"}],"outputs":[{"name":"name","type":"string","internalType":"string"},{"name":"licenseNumber","type":"string","internalType":"string"},{"name":"wallet","type":"address","internalType":"address"},{"name":"isVerified","type":"bool","internalType":"bool"}],"stateMutability":"view"},{"type":"function","name":"isHospitalVerified","inputs":[{"name":"_hospital","type":"address","internalType":"address"}],"outputs":[{"name":"","type":"bool","internalType":"bool"}],"stateMutability":"view"},{"type":"function","name":"isTrustedForwarder","inputs":[{"name":"forwarder","type":"address","internalType":"address"}],"outputs":[{"name":"","type":"bool","internalType":"bool"}],"stateMutability":"view"},{"type":"function","name":"registerHospital","inputs":[{"name":"_name","type":"string","internalType":"string"},{"name":"_licenseNumber","type":"string","internalType":"string"},{"name":"_signature","type":"bytes","internalType":"bytes"}],"outputs":[],"stateMutability":"nonpayable"},{"type":"function","name":"systemVerifier","inputs":[],"outputs":[{"name":"","type":"address","internalType":"address"}],"stateMutability":"view"},{"type":"function","name":"trustedForwarder","inputs":[],"outputs":[{"name":"","type":"address","internalType":"address"}],"stateMutability":"view"},{"type":"event","name":"HospitalRegistered","inputs":[{"name":"hospitalWallet","type":"address","indexed":true,"internalType":"address"},{"name":"name","type":"string","indexed":false,"internalType":"string"},{"name":"licenseNumber","type":"string","indexed":false,"internalType":"string"},{"name":"timestamp","type":"uint256","indexed":false,"internalType":"uint256"}],"anonymous":false},{"type":"error","name":"ECDSAInvalidSignature","inputs":[]},{"type":"error","name":"ECDSAInvalidSignatureLength","inputs":[{"name":"length","type":"uint256","internalType":"uint256"}]},{"type":"error","name":"ECDSAInvalidSignatureS","inputs":[{"name":"s","type":"bytes32","internalType":"bytes32"}]}],"bytecode":{"object":"0x60a03461009a57601f610c1638819003918201601f19168301916001600160401b0383118484101761009e57808492604094855283398101031261009a57610052602061004b836100b2565b92016100b2565b6080525f80546001600160a01b0319166001600160a01b0392909216919091179055604051610b4f90816100c78239608051818181610668015281816106c601526109a10152f35b5f80fd5b634e487b7160e01b5f52604160045260245ffd5b51906001600160a01b038216820361009a5756fe60806040908082526004361015610014575f80fd5b5f3560e01c9081630bb307a8146106eb57508063572b6c05146106975780637da0a87714610654578063b5d4a42614610145578063d977d29e1461011e578063f093cf80146100b55763fd9d52211461006b575f80fd5b346100b15760203660031901126100b1576004356001600160a01b03811691908290036100b1576020915f526001825260ff6002825f20015460a01c1690519015158152f35b5f80fd5b50346100b15760203660031901126100b1576001600160a01b03600435818116908190036100b1575f52600160205261011a825f20926100f4846108d4565b6002610102600187016108d4565b950154915194859460ff8460a01c16931691856107b9565b0390f35b50346100b1575f3660031901126100b1575f5490516001600160a01b039091168152602090f35b50346100b15760603660031901126100b15760043567ffffffffffffffff81116100b15761017790369060040161087e565b60243567ffffffffffffffff81116100b15761019790369060040161087e565b9160443567ffffffffffffffff81116100b157366023820112156100b1576101c9903690602481600401359101610838565b926101d2610976565b6001600160a01b038082165f81815260016020528590206002015490969291166106105761027d9161027491855160208101916bffffffffffffffffffffffff199060601b16825261024260348288516102328184840160208d01610773565b8101036014810184520182610816565b5190207f19457468657265756d205369676e6564204d6573736167653a0a3332000000005f52601c52603c5f206109cf565b90929192610a09565b5f546001600160a01b039081169116036105b657815161029c816107fa565b838152816020820152848382015260016060820152845f526001602052825f20815180519067ffffffffffffffff82116104df5781906102dc845461089c565b601f8111610566575b50602090601f83116001146104fe575f926104f3575b50508160011b915f199060031b1c19161781555b60018101602083015180519067ffffffffffffffff82116104df57610334835461089c565b601f811161049a575b50602090601f831160011461040757937f56201a8cff7a34f4322d1eb5be4c3ddb325561d603fcfbaff8ae33acd3465319989693836103e39997946002946103f1985f926103fc575b50508160011b915f199060031b1c19161790555b019060018060a01b038582015116825491606060ff60a01b910151151560a01b16916affffffffffffffffffffff60a81b16171790558251948594606086526060860190610794565b908482036020860152610794565b9042908301520390a2005b015190505f80610386565b90601f19831691845f5260205f20925f5b8181106104825750846002946103f198947f56201a8cff7a34f4322d1eb5be4c3ddb325561d603fcfbaff8ae33acd34653199d9b98946103e39d9b986001951061046a575b505050811b01905561039a565b01515f1960f88460031b161c191690555f808061045d565b92936020600181928786015181550195019301610418565b835f5260205f20601f840160051c810191602085106104d5575b601f0160051c01905b8181106104ca575061033d565b5f81556001016104bd565b90915081906104b4565b634e487b7160e01b5f52604160045260245ffd5b015190505f806102fb565b9250835f5260205f20905f935b601f198416851061054b576001945083601f19811610610533575b505050811b01815561030f565b01515f1960f88460031b161c191690555f8080610526565b8181015183556020948501946001909301929091019061050b565b909150835f5260205f20601f840160051c810191602085106105ac575b90601f859493920160051c01905b81811061059e57506102e5565b5f8155849350600101610591565b9091508190610583565b815162461bcd60e51b815260206004820152602d60248201527f4461746120746964616b2076616c6964206d656e75727574206461746162617360448201526c652070656d6572696e7461682160981b6064820152608490fd5b835162461bcd60e51b815260206004820152601860248201527f416b756e20696e692073756461682074657264616674617200000000000000006044820152606490fd5b50346100b1575f3660031901126100b157517f00000000000000000000000000000000000000000000000000000000000000006001600160a01b03168152602090f35b50346100b15760203660031901126100b1576001600160a01b03600435818116908190036100b15760209251917f000000000000000000000000000000000000000000000000000000000000000016148152f35b82346100b15760203660031901126100b1576001600160a01b039160043583811691908290036100b15761011a915f526001602052825f209361072d826107fa565b610736856108d4565b825260ff6002610748600188016108d4565b96876020860152015491821691828685015260a01c16151591826060820152519351948594856107b9565b5f5b8381106107845750505f910152565b8181015183820152602001610775565b906020916107ad81518092818552858086019101610773565b601f01601f1916010190565b929493906060926107d56107e392608087526080870190610794565b908582036020870152610794565b6001600160a01b0390951660408401521515910152565b6080810190811067ffffffffffffffff8211176104df57604052565b90601f8019910116810190811067ffffffffffffffff8211176104df57604052565b92919267ffffffffffffffff82116104df5760405191610862601f8201601f191660200184610816565b8294818452818301116100b1578281602093845f960137010152565b9080601f830112156100b15781602061089993359101610838565b90565b90600182811c921680156108ca575b60208310146108b657565b634e487b7160e01b5f52602260045260245ffd5b91607f16916108ab565b9060405191825f82546108e68161089c565b908184526020946001916001811690815f146109545750600114610916575b50505061091492500383610816565b565b5f90815285812095935091905b81831061093c57505061091493508201015f8080610905565b85548884018501529485019487945091830191610923565b9250505061091494925060ff191682840152151560051b8201015f8080610905565b60143610158061099d575b156109995760131936013681116100b1573560601c90565b3390565b50337f00000000000000000000000000000000000000000000000000000000000000006001600160a01b031614610981565b81519190604183036109ff576109f89250602082015190606060408401519301515f1a90610a8c565b9192909190565b50505f9160029190565b6004811015610a785780610a1b575050565b60018103610a355760405163f645eedf60e01b8152600490fd5b60028103610a565760405163fce698f760e01b815260048101839052602490fd5b600314610a605750565b602490604051906335e2f38360e21b82526004820152fd5b634e487b7160e01b5f52602160045260245ffd5b91907f7fffffffffffffffffffffffffffffff5d576e7357a4501ddfe92f46681b20a08411610b0e579160209360809260ff5f9560405194855216868401526040830152606082015282805260015afa15610b03575f516001600160a01b03811615610af957905f905f90565b505f906001905f90565b6040513d5f823e3d90fd5b5050505f916003919056fea2646970667358221220e9f435ed66ce76447312dee08e4236e69812abc6c8858a300c228fee054c742964736f6c63430008180033","linkReferences":{}},"methodIdentifiers":{"getHospitalDetails(address)":"0bb307a8","hospitals(address)":"f093cf80","isHospitalVerified(address)":"fd9d5221","isTrustedForwarder(address)":"572b6c05","registerHospital(string,string,bytes)":"b5d4a426","systemVerifier()":"d977d29e","trustedForwarder()":"7da0a877"},"id":54}