{"abi":[{"type":"constructor","inputs":[{"name":"_hospitalRegistry","type":"address","internalType":"address"},{"name":"_trustedForwarder","type":"address","internalType":"address"}],"stateMutability":"nonpayable"},{"type":"function","name":"ADMIN_ROLE","inputs":[],"outputs":[{"name":"","type":"bytes32","internalType":"bytes32"}],"stateMutability":"view"},{"type":"function","name":"DEFAULT_ADMIN_ROLE","inputs":[],"outputs":[{"name":"","type":"bytes32","internalType":"bytes32"}],"stateMutability":"view"},{"type":"function","name":"HOSPITAL_ROLE","inputs":[],"outputs":[{"name":"","type":"bytes32","internalType":"bytes32"}],"stateMutability":"view"},{"type":"function","name":"accessPermissions","inputs":[{"name":"","type":"address","internalType":"address"},{"name":"","type":"address","internalType":"address"}],"outputs":[{"name":"isGranted","type":"bool","internalType":"bool"},{"name":"expiresAt","type":"uint256","internalType":"uint256"},{"name":"grantedAt","type":"uint256","internalType":"uint256"},{"name":"accessType","type":"string","internalType":"string"}],"stateMutability":"view"},{"type":"function","name":"addMedicalRecord","inputs":[{"name":"_patient","type":"address","internalType":"address"},{"name":"_ipfsCid","type":"string","internalType":"string"},{"name":"_dataHash","type":"bytes32","internalType":"bytes32"},{"name":"_icd10Code","type":"string","internalType":"string"},{"name":"_recordType","type":"string","internalType":"string"}],"outputs":[{"name":"recordIndex","type":"uint256","internalType":"uint256"}],"stateMutability":"nonpayable"},{"type":"function","name":"approve","inputs":[{"name":"","type":"address","internalType":"address"},{"name":"","type":"uint256","internalType":"uint256"}],"outputs":[],"stateMutability":"nonpayable"},{"type":"function","name":"approveAccessRequest","inputs":[{"name":"_requestIndex","type":"uint256","internalType":"uint256"}],"outputs":[],"stateMutability":"nonpayable"},{"type":"function","name":"balanceOf","inputs":[{"name":"owner","type":"address","internalType":"address"}],"outputs":[{"name":"","type":"uint256","internalType":"uint256"}],"stateMutability":"view"},{"type":"function","name":"checkAccess","inputs":[{"name":"_patient","type":"address","internalType":"address"},{"name":"_accessor","type":"address","internalType":"address"}],"outputs":[{"name":"hasAccess","type":"bool","internalType":"bool"},{"name":"accessDetails","type":"tuple","internalType":"struct MedichainPatientIdentity.AccessPermission","components":[{"name":"isGranted","type":"bool","internalType":"bool"},{"name":"expiresAt","type":"uint256","internalType":"uint256"},{"name":"grantedAt","type":"uint256","internalType":"uint256"},{"name":"accessType","type":"string","internalType":"string"}]}],"stateMutability":"view"},{"type":"function","name":"getAccessGrantMessageHash","inputs":[{"name":"_patient","type":"address","internalType":"address"},{"name":"_accessor","type":"address","internalType":"address"},{"name":"_accessType","type":"string","internalType":"string"},{"name":"_expiresAt","type":"uint256","internalType":"uint256"},{"name":"_nonce","type":"uint256","internalType":"uint256"}],"outputs":[{"name":"","type":"bytes32","internalType":"bytes32"}],"stateMutability":"pure"},{"type":"function","name":"getAccessRequests","inputs":[{"name":"_patient","type":"address","internalType":"address"}],"outputs":[{"name":"","type":"tuple[]","internalType":"struct MedichainPatientIdentity.AccessRequest[]","components":[{"name":"hospitalAddress","type":"address","internalType":"address"},{"name":"hospitalName","type":"string","internalType":"string"},{"name":"requestedAt","type":"uint256","internalType":"uint256"},{"name":"accessDuration","type":"uint256","internalType":"uint256"},{"name":"message","type":"string","internalType":"string"},{"name":"status","type":"uint8","internalType":"uint8"}]}],"stateMutability":"view"},{"type":"function","name":"getActiveAccessors","inputs":[{"name":"_patient","type":"address","internalType":"address"}],"outputs":[{"name":"","type":"address[]","internalType":"address[]"}],"stateMutability":"view"},{"type":"function","name":"getApproved","inputs":[{"name":"tokenId","type":"uint256","internalType":"uint256"}],"outputs":[{"name":"","type":"address","internalType":"address"}],"stateMutability":"view"},{"type":"function","name":"getGrantedAccessList","inputs":[{"name":"_patient","type":"address","internalType":"address"}],"outputs":[{"name":"","type":"address[]","internalType":"address[]"}],"stateMutability":"view"},{"type":"function","name":"getPatientId","inputs":[{"name":"_patientWallet","type":"address","internalType":"address"}],"outputs":[{"name":"","type":"uint256","internalType":"uint256"}],"stateMutability":"view"},{"type":"function","name":"getPatientProfile","inputs":[{"name":"_patient","type":"address","internalType":"address"}],"outputs":[{"name":"","type":"tuple","internalType":"struct MedichainPatientIdentity.PatientProfile","components":[{"name":"isRegistered","type":"bool","internalType":"bool"},{"name":"registrationTimestamp","type":"uint256","internalType":"uint256"},{"name":"totalRecords","type":"uint256","internalType":"uint256"},{"name":"lastActivityTimestamp","type":"uint256","internalType":"uint256"}]}],"stateMutability":"view"},{"type":"function","name":"getPatientRecords","inputs":[{"name":"_patient","type":"address","internalType":"address"}],"outputs":[{"name":"","type":"tuple[]","internalType":"struct MedichainPatientIdentity.MedicalRecordRef[]","components":[{"name":"ipfsCid","type":"string","internalType":"string"},{"name":"dataHash","type":"bytes32","internalType":"bytes32"},{"name":"hospitalAddress","type":"address","internalType":"address"},{"name":"timestamp","type":"uint256","internalType":"uint256"},{"name":"icd10Code","type":"string","internalType":"string"},{"name":"recordType","type":"string","internalType":"string"},{"name":"isVerified","type":"bool","internalType":"bool"}]}],"stateMutability":"view"},{"type":"function","name":"getPendingAccessRequestCount","inputs":[{"name":"_patient","type":"address","internalType":"address"}],"outputs":[{"name":"count","type":"uint256","internalType":"uint256"}],"stateMutability":"view"},{"type":"function","name":"getPendingAccessRequests","inputs":[{"name":"_patient","type":"address","internalType":"address"}],"outputs":[{"name":"","type":"tuple[]","internalType":"struct MedichainPatientIdentity.AccessRequest[]","components":[{"name":"hospitalAddress","type":"address","internalType":"address"},{"name":"hospitalName","type":"string","internalType":"string"},{"name":"requestedAt","type":"uint256","internalType":"uint256"},{"name":"accessDuration","type":"uint256","internalType":"uint256"},{"name":"message","type":"string","internalType":"string"},{"name":"status","type":"uint8","internalType":"uint8"}]}],"stateMutability":"view"},{"type":"function","name":"getRecordByIndex","inputs":[{"name":"_patient","type":"address","internalType":"address"},{"name":"_recordIndex","type":"uint256","internalType":"uint256"}],"outputs":[{"name":"","type":"tuple","internalType":"struct MedichainPatientIdentity.MedicalRecordRef","components":[{"name":"ipfsCid","type":"string","internalType":"string"},{"name":"dataHash","type":"bytes32","internalType":"bytes32"},{"name":"hospitalAddress","type":"address","internalType":"address"},{"name":"timestamp","type":"uint256","internalType":"uint256"},{"name":"icd10Code","type":"string","internalType":"string"},{"name":"recordType","type":"string","internalType":"string"},{"name":"isVerified","type":"bool","internalType":"bool"}]}],"stateMutability":"view"},{"type":"function","name":"getRecordCount","inputs":[{"name":"_patient","type":"address","internalType":"address"}],"outputs":[{"name":"","type":"uint256","internalType":"uint256"}],"stateMutability":"view"},{"type":"function","name":"getRecordsByHospital","inputs":[{"name":"_patient","type":"address","internalType":"address"},{"name":"_hospital","type":"address","internalType":"address"}],"outputs":[{"name":"","type":"tuple[]","internalType":"struct MedichainPatientIdentity.MedicalRecordRef[]","components":[{"name":"ipfsCid","type":"string","internalType":"string"},{"name":"dataHash","type":"bytes32","internalType":"bytes32"},{"name":"hospitalAddress","type":"address","internalType":"address"},{"name":"timestamp","type":"uint256","internalType":"uint256"},{"name":"icd10Code","type":"string","internalType":"string"},{"name":"recordType","type":"string","internalType":"string"},{"name":"isVerified","type":"bool","internalType":"bool"}]}],"stateMutability":"view"},{"type":"function","name":"getRoleAdmin","inputs":[{"name":"role","type":"bytes32","internalType":"bytes32"}],"outputs":[{"name":"","type":"bytes32","internalType":"bytes32"}],"stateMutability":"view"},{"type":"function","name":"getTotalPatients","inputs":[],"outputs":[{"name":"","type":"uint256","internalType":"uint256"}],"stateMutability":"view"},{"type":"function","name":"grantAccess","inputs":[{"name":"_accessor","type":"address","internalType":"address"},{"name":"_accessType","type":"string","internalType":"string"},{"name":"_expiresAt","type":"uint256","internalType":"uint256"}],"outputs":[],"stateMutability":"nonpayable"},{"type":"function","name":"grantRole","inputs":[{"name":"role","type":"bytes32","internalType":"bytes32"},{"name":"account","type":"address","internalType":"address"}],"outputs":[],"stateMutability":"nonpayable"},{"type":"function","name":"hasPatientIdentity","inputs":[{"name":"_wallet","type":"address","internalType":"address"}],"outputs":[{"name":"","type":"bool","internalType":"bool"}],"stateMutability":"view"},{"type":"function","name":"hasRole","inputs":[{"name":"role","type":"bytes32","internalType":"bytes32"},{"name":"account","type":"address","internalType":"address"}],"outputs":[{"name":"","type":"bool","internalType":"bool"}],"stateMutability":"view"},{"type":"function","name":"hospitalRegistry","inputs":[],"outputs":[{"name":"","type":"address","internalType":"contract IHospitalRegistry"}],"stateMutability":"view"},{"type":"function","name":"isApprovedForAll","inputs":[{"name":"owner","type":"address","internalType":"address"},{"name":"operator","type":"address","internalType":"address"}],"outputs":[{"name":"","type":"bool","internalType":"bool"}],"stateMutability":"view"},{"type":"function","name":"isHospitalAuthorized","inputs":[{"name":"_hospital","type":"address","internalType":"address"}],"outputs":[{"name":"","type":"bool","internalType":"bool"}],"stateMutability":"view"},{"type":"function","name":"isTrustedForwarder","inputs":[{"name":"forwarder","type":"address","internalType":"address"}],"outputs":[{"name":"","type":"bool","internalType":"bool"}],"stateMutability":"view"},{"type":"function","name":"isWhitelistedHospital","inputs":[{"name":"","type":"address","internalType":"address"}],"outputs":[{"name":"","type":"bool","internalType":"bool"}],"stateMutability":"view"},{"type":"function","name":"mintIdentity","inputs":[{"name":"_patientWallet","type":"address","internalType":"address"}],"outputs":[{"name":"patientId","type":"uint256","internalType":"uint256"}],"stateMutability":"nonpayable"},{"type":"function","name":"name","inputs":[],"outputs":[{"name":"","type":"string","internalType":"string"}],"stateMutability":"view"},{"type":"function","name":"ownerOf","inputs":[{"name":"tokenId","type":"uint256","internalType":"uint256"}],"outputs":[{"name":"","type":"address","internalType":"address"}],"stateMutability":"view"},{"type":"function","name":"patientIdToWallet","inputs":[{"name":"","type":"uint256","internalType":"uint256"}],"outputs":[{"name":"","type":"address","internalType":"address"}],"stateMutability":"view"},{"type":"function","name":"patientProfiles","inputs":[{"name":"","type":"address","internalType":"address"}],"outputs":[{"name":"isRegistered","type":"bool","internalType":"bool"},{"name":"registrationTimestamp","type":"uint256","internalType":"uint256"},{"name":"totalRecords","type":"uint256","internalType":"uint256"},{"name":"lastActivityTimestamp","type":"uint256","internalType":"uint256"}],"stateMutability":"view"},{"type":"function","name":"recordHashExists","inputs":[{"name":"","type":"bytes32","internalType":"bytes32"}],"outputs":[{"name":"","type":"bool","internalType":"bool"}],"stateMutability":"view"},{"type":"function","name":"rejectAccessRequest","inputs":[{"name":"_requestIndex","type":"uint256","internalType":"uint256"}],"outputs":[],"stateMutability":"nonpayable"},{"type":"function","name":"removeHospitalFromWhitelist","inputs":[{"name":"_hospital","type":"address","internalType":"address"}],"outputs":[],"stateMutability":"nonpayable"},{"type":"function","name":"renounceRole","inputs":[{"name":"role","type":"bytes32","internalType":"bytes32"},{"name":"callerConfirmation","type":"address","internalType":"address"}],"outputs":[],"stateMutability":"nonpayable"},{"type":"function","name":"requestAccess","inputs":[{"name":"_patient","type":"address","internalType":"address"},{"name":"_hospitalName","type":"string","internalType":"string"},{"name":"_accessDuration","type":"uint256","internalType":"uint256"},{"name":"_message","type":"string","internalType":"string"}],"outputs":[],"stateMutability":"nonpayable"},{"type":"function","name":"revokeAccess","inputs":[{"name":"_accessor","type":"address","internalType":"address"}],"outputs":[],"stateMutability":"nonpayable"},{"type":"function","name":"revokeRole","inputs":[{"name":"role","type":"bytes32","internalType":"bytes32"},{"name":"account","type":"address","internalType":"address"}],"outputs":[],"stateMutability":"nonpayable"},{"type":"function","name":"safeTransferFrom","inputs":[{"name":"from","type":"address","internalType":"address"},{"name":"to","type":"address","internalType":"address"},{"name":"tokenId","type":"uint256","internalType":"uint256"}],"outputs":[],"stateMutability":"nonpayable"},{"type":"function","name":"safeTransferFrom","inputs":[{"name":"from","type":"address","internalType":"address"},{"name":"to","type":"address","internalType":"address"},{"name":"tokenId","type":"uint256","internalType":"uint256"},{"name":"data","type":"bytes","internalType":"bytes"}],"outputs":[],"stateMutability":"nonpayable"},{"type":"function","name":"selfRegister","inputs":[],"outputs":[{"name":"patientId","type":"uint256","internalType":"uint256"}],"stateMutability":"nonpayable"},{"type":"function","name":"setApprovalForAll","inputs":[{"name":"","type":"address","internalType":"address"},{"name":"","type":"bool","internalType":"bool"}],"outputs":[],"stateMutability":"nonpayable"},{"type":"function","name":"setHospitalRegistry","inputs":[{"name":"_hospitalRegistry","type":"address","internalType":"address"}],"outputs":[],"stateMutability":"nonpayable"},{"type":"function","name":"supportsInterface","inputs":[{"name":"interfaceId","type":"bytes4","internalType":"bytes4"}],"outputs":[{"name":"","type":"bool","internalType":"bool"}],"stateMutability":"view"},{"type":"function","name":"symbol","inputs":[],"outputs":[{"name":"","type":"string","internalType":"string"}],"stateMutability":"view"},{"type":"function","name":"tokenURI","inputs":[{"name":"tokenId","type":"uint256","internalType":"uint256"}],"outputs":[{"name":"","type":"string","internalType":"string"}],"stateMutability":"view"},{"type":"function","name":"transferFrom","inputs":[{"name":"from","type":"address","internalType":"address"},{"name":"to","type":"address","internalType":"address"},{"name":"tokenId","type":"uint256","internalType":"uint256"}],"outputs":[],"stateMutability":"nonpayable"},{"type":"function","name":"trustedForwarder","inputs":[],"outputs":[{"name":"","type":"address","internalType":"address"}],"stateMutability":"view"},{"type":"function","name":"verifyPatientSignature","inputs":[{"name":"_patient","type":"address","internalType":"address"},{"name":"_messageHash","type":"bytes32","internalType":"bytes32"},{"name":"_signature","type":"bytes","internalType":"bytes"}],"outputs":[{"name":"","type":"bool","internalType":"bool"}],"stateMutability":"view"},{"type":"function","name":"verifyRecord","inputs":[{"name":"_patient","type":"address","internalType":"address"},{"name":"_recordIndex","type":"uint256","internalType":"uint256"}],"outputs":[],"stateMutability":"nonpayable"},{"type":"function","name":"walletToPatientId","inputs":[{"name":"","type":"address","internalType":"address"}],"outputs":[{"name":"","type":"uint256","internalType":"uint256"}],"stateMutability":"view"},{"type":"function","name":"whitelistHospital","inputs":[{"name":"_hospital","type":"address","internalType":"address"},{"name":"_hospitalName","type":"string","internalType":"string"}],"outputs":[],"stateMutability":"nonpayable"},{"type":"event","name":"AccessGranted","inputs":[{"name":"patient","type":"address","indexed":true,"internalType":"address"},{"name":"accessor","type":"address","indexed":true,"internalType":"address"},{"name":"accessType","type":"string","indexed":false,"internalType":"string"},{"name":"expiresAt","type":"uint256","indexed":false,"internalType":"uint256"}],"anonymous":false},{"type":"event","name":"AccessRequestApproved","inputs":[{"name":"patient","type":"address","indexed":true,"internalType":"address"},{"name":"hospital","type":"address","indexed":true,"internalType":"address"},{"name":"requestIndex","type":"uint256","indexed":false,"internalType":"uint256"}],"anonymous":false},{"type":"event","name":"AccessRequestRejected","inputs":[{"name":"patient","type":"address","indexed":true,"internalType":"address"},{"name":"hospital","type":"address","indexed":true,"internalType":"address"},{"name":"requestIndex","type":"uint256","indexed":false,"internalType":"uint256"}],"anonymous":false},{"type":"event","name":"AccessRequested","inputs":[{"name":"patient","type":"address","indexed":true,"internalType":"address"},{"name":"hospital","type":"address","indexed":true,"internalType":"address"},{"name":"hospitalName","type":"string","indexed":false,"internalType":"string"},{"name":"requestIndex","type":"uint256","indexed":false,"internalType":"uint256"},{"name":"accessDuration","type":"uint256","indexed":false,"internalType":"uint256"}],"anonymous":false},{"type":"event","name":"AccessRevoked","inputs":[{"name":"patient","type":"address","indexed":true,"internalType":"address"},{"name":"accessor","type":"address","indexed":true,"internalType":"address"},{"name":"timestamp","type":"uint256","indexed":false,"internalType":"uint256"}],"anonymous":false},{"type":"event","name":"Approval","inputs":[{"name":"owner","type":"address","indexed":true,"internalType":"address"},{"name":"approved","type":"address","indexed":true,"internalType":"address"},{"name":"tokenId","type":"uint256","indexed":true,"internalType":"uint256"}],"anonymous":false},{"type":"event","name":"ApprovalForAll","inputs":[{"name":"owner","type":"address","indexed":true,"internalType":"address"},{"name":"operator","type":"address","indexed":true,"internalType":"address"},{"name":"approved","type":"bool","indexed":false,"internalType":"bool"}],"anonymous":false},{"type":"event","name":"HospitalRegistryUpdated","inputs":[{"name":"registryAddress","type":"address","indexed":true,"internalType":"address"}],"anonymous":false},{"type":"event","name":"HospitalRemovedFromWhitelist","inputs":[{"name":"hospital","type":"address","indexed":true,"internalType":"address"}],"anonymous":false},{"type":"event","name":"HospitalWhitelisted","inputs":[{"name":"hospital","type":"address","indexed":true,"internalType":"address"},{"name":"hospitalName","type":"string","indexed":false,"internalType":"string"}],"anonymous":false},{"type":"event","name":"IdentityMinted","inputs":[{"name":"patientWallet","type":"address","indexed":true,"internalType":"address"},{"name":"patientId","type":"uint256","indexed":true,"internalType":"uint256"},{"name":"timestamp","type":"uint256","indexed":false,"internalType":"uint256"}],"anonymous":false},{"type":"event","name":"RecordAdded","inputs":[{"name":"patient","type":"address","indexed":true,"internalType":"address"},{"name":"hospital","type":"address","indexed":true,"internalType":"address"},{"name":"ipfsCid","type":"string","indexed":false,"internalType":"string"},{"name":"recordIndex","type":"uint256","indexed":false,"internalType":"uint256"},{"name":"icd10Code","type":"string","indexed":false,"internalType":"string"}],"anonymous":false},{"type":"event","name":"RecordVerified","inputs":[{"name":"patient","type":"address","indexed":true,"internalType":"address"},{"name":"recordIndex","type":"uint256","indexed":false,"internalType":"uint256"},{"name":"timestamp","type":"uint256","indexed":false,"internalType":"uint256"}],"anonymous":false},{"type":"event","name":"RoleAdminChanged","inputs":[{"name":"role","type":"bytes32","indexed":true,"internalType":"bytes32"},{"name":"previousAdminRole","type":"bytes32","indexed":true,"internalType":"bytes32"},{"name":"newAdminRole","type":"bytes32","indexed":true,"internalType":"bytes32"}],"anonymous":false},{"type":"event","name":"RoleGranted","inputs":[{"name":"role","type":"bytes32","indexed":true,"internalType":"bytes32"},{"name":"account","type":"address","indexed":true,"internalType":"address"},{"name":"sender","type":"address","indexed":true,"internalType":"address"}],"anonymous":false},{"type":"event","name":"RoleRevoked","inputs":[{"name":"role","type":"bytes32","indexed":true,"internalType":"bytes32"},{"name":"account","type":"address","indexed":true,"internalType":"address"},{"name":"sender","type":"address","indexed":true,"internalType":"address"}],"anonymous":false},{"type":"event","name":"Transfer","inputs":[{"name":"from","type":"address","indexed":true,"internalType":"address"},{"name":"to","type":"address","indexed":true,"internalType":"address"},{"name":"tokenId","type":"uint256","indexed":true,"internalType":"uint256"}],"anonymous":false},{"type":"error","name":"AccessControlBadConfirmation","inputs":[]},{"type":"error","name":"AccessControlUnauthorizedAccount","inputs":[{"name":"account","type":"address","internalType":"address"},{"name":"neededRole","type":"bytes32","internalType":"bytes32"}]},{"type":"error","name":"AccessExpired","inputs":[]},{"type":"error","name":"AccessNotGranted","inputs":[]},{"type":"error","name":"AccessRequestAlreadyPending","inputs":[]},{"type":"error","name":"AccessRequestNotPending","inputs":[]},{"type":"error","name":"DuplicateRecordHash","inputs":[]},{"type":"error","name":"ECDSAInvalidSignature","inputs":[]},{"type":"error","name":"ECDSAInvalidSignatureLength","inputs":[{"name":"length","type":"uint256","internalType":"uint256"}]},{"type":"error","name":"ECDSAInvalidSignatureS","inputs":[{"name":"s","type":"bytes32","internalType":"bytes32"}]},{"type":"error","name":"ERC721IncorrectOwner","inputs":[{"name":"sender","type":"address","internalType":"address"},{"name":"tokenId","type":"uint256","internalType":"uint256"},{"name":"owner","type":"address","internalType":"address"}]},{"type":"error","name":"ERC721InsufficientApproval","inputs":[{"name":"operator","type":"address","internalType":"address"},{"name":"tokenId","type":"uint256","internalType":"uint256"}]},{"type":"error","name":"ERC721InvalidApprover","inputs":[{"name":"approver","type":"address","internalType":"address"}]},{"type":"error","name":"ERC721InvalidOperator","inputs":[{"name":"operator","type":"address","internalType":"address"}]},{"type":"error","name":"ERC721InvalidOwner","inputs":[{"name":"owner","type":"address","internalType":"address"}]},{"type":"error","name":"ERC721InvalidReceiver","inputs":[{"name":"receiver","type":"address","internalType":"address"}]},{"type":"error","name":"ERC721InvalidSender","inputs":[{"name":"sender","type":"address","internalType":"address"}]},{"type":"error","name":"ERC721NonexistentToken","inputs":[{"name":"tokenId","type":"uint256","internalType":"uint256"}]},{"type":"error","name":"HospitalNotWhitelisted","inputs":[]},{"type":"error","name":"InvalidAccessRequestIndex","inputs":[]},{"type":"error","name":"InvalidExpiryTimestamp","inputs":[]},{"type":"error","name":"InvalidRecordIndex","inputs":[]},{"type":"error","name":"NotPatientOwner","inputs":[]},{"type":"error","name":"PatientAlreadyRegistered","inputs":[]},{"type":"error","name":"PatientNotRegistered","inputs":[]},{"type":"error","name":"ReentrancyGuardReentrantCall","inputs":[]},{"type":"error","name":"SoulboundTokenNonTransferable","inputs":[]},{"type":"error","name":"ZeroAddressNotAllowed","inputs":[]}],"bytecode":{"object":"0x60a034620003b157601f19906001600160401b0390601f620047db3881900382810186168401919085831185841017620002d3578085926040948552833981010312620003b1576200005182620003d5565b92620000616020809401620003d5565b916200006c620003b5565b93601a85527f4d656469636861696e2050617469656e74204964656e7469747900000000000081860152620000a0620003b5565b966005885264135151125160da1b828901528551848111620002d3575f546001978882811c92168015620003a6575b85831014620002b457818684931162000353575b508490868311600114620002f3575f92620002e7575b50505f19600383901b1c191690871b175f555b8751938411620002d35785548681811c91168015620002c8575b83821014620002b4578381116200026c575b50819284116001146200020657505081929394955f92620001fa575b50505f19600383901b1c191690831b1782555b817f9b779b17422d0df92223018b32b4d1fa46e071723d6817e2486d003becc55f00556080526200019833620003ea565b50620001a4336200046a565b506007556001600160a01b031680620001df575b6040516142439081620005588239608051818181611a7f01528181612b0701526140350152f35b601280546001600160a01b0319169190911790555f620001b8565b015190505f8062000154565b5f868152828120918516989193925b8982106200025457505083869798969596106200023b575b505050811b01825562000167565b01515f1960f88460031b161c191690555f80806200022d565b80888596829496860151815501950193019062000215565b865f52825f208480870160051c820192858810620002aa575b0160051c019087905b8281106200029e57505062000138565b5f81550187906200028e565b9250819262000285565b634e487b7160e01b5f52602260045260245ffd5b90607f169062000126565b634e487b7160e01b5f52604160045260245ffd5b015190505f80620000f9565b90848a9416915f8052865f20925f5b888282106200033c575050841162000323575b505050811b015f556200010c565b01515f1960f88460031b161c191690555f808062000315565b8385015186558d9790950194938401930162000302565b9091505f8052845f208680850160051c8201928786106200039c575b918b91869594930160051c01915b8281106200038d575050620000e3565b5f81558594508b91016200037d565b925081926200036f565b91607f1691620000cf565b5f80fd5b60408051919082016001600160401b03811183821017620002d357604052565b51906001600160a01b0382168203620003b157565b6001600160a01b039081165f8181525f80516020620047bb833981519152602052604090205490919060ff1662000464575f8281525f80516020620047bb83398151915260205260409020805460ff191660011790556200044a62000518565b16905f5f805160206200479b8339815191528180a4600190565b50505f90565b6001600160a01b039081165f8181527f0c3bb05773fb95f6688e1e7d9c896674dccd66884026cf30a3d5e3a9bfecd81160205260409020547fa49807205ce4d355092ef5a8a18f56e8913cf4a201fbe287825b095693c21775929060ff166200051157825f52600660205260405f20825f5260205260405f20600160ff19825416179055620004f862000518565b16915f805160206200479b8339815191525f80a4600190565b5050505f90565b60143610158062000542575b156200053e576013193601368111620003b1573560601c90565b3390565b506080516001600160a01b031633146200052456fe6080806040526004361015610012575f80fd5b5f3560e01c90816301ffc9a714612fd4575080630425fb8e14612fac57806306fdde0314612f05578063081812fc14612ec9578063095ea7b314612e9d57806318bd484714612e1257806323b872dd14612dfb57806323ecb05814612d96578063248a9ca314612dce5780632604fa7b14612d965780632f2ff15d14612d5957806336568abe14612d085780633919353514612c4857806342842e0e14612c1b578063461a208214612b7857806350bf7c6714612b3b578063572b6c0514612ae757806358213d921461262e57806358214308146125f65780635d5be45b146123ca57806362b54263146122b157806362e1f745146121a35780636352211e1461217357806364b3b525146120ec578063673de2881461203b578063698a24ad14611f6357806369b80fc914611f3b5780636be3813114611bda5780636ea3e19914611b7b57806370a0823114611b2557806371b567d214611ae857806375b238fc14611aae5780637da0a87714611a6a5780637f93a961146117ae57806385e68531146116a257806386f66622146115805780638a45886e1461139c57806391d148541461135357806393eecc07146112ed57806395d89b411461120f578063a217fddf146111f5578063a22cb465146111be578063ab926a911461118f578063b88d4fde1461111d578063bbb7373914611069578063c4f938b214610fc9578063c87b56dd14610f78578063cf37433414610ea5578063d1d776cb14610e73578063d547741f14610e34578063d86a28bb14610d00578063dd5cd4a514610b70578063e68cc4a314610ae2578063e985e9c514610a90578063ead6477214610a1f578063ee75697114610996578063f497e1891461096d578063f6ba6678146109465763f76b6893146102a5575f80fd5b346109425760a0366003190112610942576102be613059565b6024356001600160401b038111610942576102dd9036906004016131d5565b90916064356001600160401b038111610942576102fe9036906004016131d5565b936084356001600160401b0381116109425761031e9036906004016131d5565b610329929192613c34565b6001600160a01b038516156109305761034061400a565b9261034a8461385f565b1561091e576001600160a01b0386165f908152600b602052604090205460ff161561090c576044355f52600e60205260ff60405f2054166108fa576103f0906044355f52600e60205260405f20600160ff19825416179055604051926103af846132b4565b6103ba368a8761347e565b845260443560208501526001600160a01b03861660408501524260608501526103e4368b8961347e565b6080850152369161347e565b60a08201525f60c082018190526001600160a01b0386168152600c602052604090208054600160401b81101561074a5761042f916001820181556137c8565b9190916108e75780518051906001600160401b03821161074a5781906104558554613246565b601f811161089a575b50602090601f8311600114610832575f92610827575b50508160011b915f199060031b1c19161782555b602081015160018301556002820160018060a01b036040830151166001600160601b0360a01b8254161790556060810151600383015560808101518051906001600160401b03821161074a5781906104e36004860154613246565b601f81116107d7575b50602090601f8311600114610769575f9261075e575b50508160011b915f199060031b1c19161760048301555b60a08101518051906001600160401b03821161074a5761053c6005850154613246565b601f8111610706575b50602090601f831160011461069157928260069360c09361059697965f92610686575b50508160011b915f199060031b1c19161760058501555b0151151591019060ff801983541691151516179055565b6001600160a01b0384165f908152600c60205260409020545f19810195908611610672576106567f5ad1b580d9c61c992fa3f879f9d282b40b66d49fd5006905bf1844d6f8084df89360209860018060a01b0388165f52600b8a52600260405f2001610602815461377a565b905560018060a01b0388165f52600b8a5242600360405f200155610633604051958695606087526060870191613746565b848b018a905284810360408601526001600160a01b039283169890921696613746565b0390a360015f805160206141ce83398151915255604051908152f35b634e487b7160e01b5f52601160045260245ffd5b015190505f80610568565b90600585015f5260205f20915f5b601f19851681106106ee57508360c093610596979693600193600697601f198116106106d6575b505050811b01600585015561057f565b01515f1960f88460031b161c191690555f80806106c6565b9192602060018192868501518155019401920161069f565b600585015f5260205f20601f840160051c810160208510610743575b601f830160051c82018110610738575050610545565b5f8155600101610722565b5080610722565b634e487b7160e01b5f52604160045260245ffd5b015190505f80610502565b9250600485015f5260205f20905f935b601f19841685106107bc576001945083601f198116106107a4575b505050811b016004830155610519565b01515f1960f88460031b161c191690555f8080610794565b81810151835560209485019460019093019290910190610779565b909150600485015f5260205f20601f840160051c810160208510610820575b90849392915b601f830160051c820181106108125750506104ec565b5f81558594506001016107fc565b50806107f6565b015190505f80610474565b9250845f5260205f20905f935b601f198416851061087f576001945083601f19811610610867575b505050811b018255610488565b01515f1960f88460031b161c191690555f808061085a565b8181015183556020948501946001909301929091019061083f565b909150845f5260205f20601f840160051c8101602085106108e0575b90849392915b601f830160051c820181106108d257505061045e565b5f81558594506001016108bc565b50806108b6565b634e487b7160e01b5f525f60045260245ffd5b60405163ede97d9b60e01b8152600490fd5b604051637d9ee48b60e11b8152600490fd5b60405163409622d360e01b8152600490fd5b6040516342bcdf7f60e11b8152600490fd5b5f80fd5b34610942575f3660031901126109425760206040515f805160206141ee8339815191528152f35b34610942575f366003190112610942576007545f19810190811161067257602090604051908152f35b3461094257602080600319360112610942576001600160a01b03806109b9613059565b165f52600d60205260405f20916040518092602085549283815201945f5260205f20925f915b838310610a0657610a02866109f6818a03826132ea565b60405191829182613202565b0390f35b84548116875295810195600194850194909201916109df565b3461094257602036600319011261094257610a38613059565b610a4061397f565b6001600160a01b0381165f818152600f60205260409020805460ff1916905590610a6990613b40565b507fe0ef7dea3dd0f224d7aa571a6f26f5eb6141c1cf7635004dd71ccd0d29a7768d5f80a2005b3461094257604036600319011261094257610aa9613059565b610ab161306f565b9060018060a01b038091165f52600560205260405f2091165f52602052602060ff60405f2054166040519015158152f35b3461094257604036600319011261094257610afb613059565b60243590610b076137e1565b506001600160a01b03165f818152600c6020526040902054909190811015610b5e57610b44610b4a91610a02935f52600c60205260405f206137c8565b506134cb565b6040519182916020835260208301906130cb565b604051636800ffbb60e11b8152600490fd5b3461094257604036600319011261094257610b89613059565b610b9161306f565b9060018060a01b038091165f52602090600c825260405f20908154610bb5816134b4565b92610bc360405194856132ea565b8184525f9081528481208585015b838310610cdd57505050505f91815f9516945b8151811015610c215785836040610bfb8486613766565b5101511614610c0d575b600101610be4565b92610c1960019161377a565b939050610c05565b509092610c2d836134b4565b92610c3b60405194856132ea565b808452610c4a601f19916134b4565b015f5b818110610cc7575050505f905f5b8151811015610cb95785856040610c728486613766565b5101511614610c84575b600101610c5b565b91610cb1600191610c958585613766565b51610ca08288613766565b52610cab8187613766565b5061377a565b929050610c7c565b60405180610a02868261313d565b8290610cd16137e1565b82828801015201610c4d565b600787600192610cef859b9a9b6134cb565b815201920192019190969596610bd1565b34610942575f36600319011261094257610d18613c34565b610d2061400a565b60018060a01b038116805f52602091600b835260ff60405f205416610e2257610d5b9160075492838093610d538261377a565b600755613c63565b805f52600884528160405f2055815f526009845260405f20816001600160601b0360a01b825416179055604051610d918161327e565b600181526003858201428152604083015f81526060840191428352855f52600b8952610dd060405f2095511515869060ff801983541691151516179055565b516001850155516002840155519101557fde0b222d3e36a1ff291a16adb24ab89eed387b0e4cc07e3c902d02d3f0fa36f584604051428152a360015f805160206141ce83398151915255604051908152f35b60405163f6c2423f60e01b8152600490fd5b3461094257604036600319011261094257610e71600435610e5361306f565b90805f526006602052610e6c600160405f200154613a09565b613be1565b005b34610942576020366003190112610942576004355f526009602052602060018060a01b0360405f205416604051908152f35b3461094257602080600319360112610942576001600160a01b039081610ec9613059565b165f526010815260405f20805490610ee0826134b4565b92610eee60405194856132ea565b8284525f9182528082208185015b848410610f115760405180610a0288826133ad565b600683600192604051610f2381613299565b8a8654168152610f3485870161330b565b838201526002860154604082015260038601546060820152610f586004870161330b565b608082015260ff60058701541660a0820152815201920193019290610efc565b3461094257602036600319011261094257610f94600435613945565b505f604051610fa2816132cf565b52610a02604051610fb2816132cf565b5f81526040519182916020835260208301906130a6565b346109425760a036600319011261094257610fe2613059565b610fea61306f565b604435916001600160401b0383116109425761105e608861101160209536906004016131d5565b80604095929551958693898501986001600160601b0319809260601b168a5260601b16603485015260488401378101606435604882015260843560688201520360688101845201826132ea565b519020604051908152f35b3461094257604036600319011261094257611082613059565b6024359061108e613c34565b61109661397f565b6001600160a01b03165f818152600c6020526040902054909190811015610b5e5760407fd954999b3febe61524071882a754f3968f7c2516843cafd8667d54ff50b8113a91835f52600c60205260066110f182845f206137c8565b5001805460ff191660011790558151908152426020820152a260015f805160206141ce83398151915255005b3461094257608036600319011261094257611136613059565b61113e61306f565b90604435606435926001600160401b038411610942573660238501121561094257611176610e7194369060248160040135910161347e565b9261118283838361353e565b61118a61400a565b613ec0565b34610942576020366003190112610942576004355f52600e602052602060ff60405f2054166040519015158152f35b34610942576040366003190112610942576111d7613059565b50602435801515036109425760405163216dcda760e01b8152600490fd5b34610942575f3660031901126109425760206040515f8152f35b34610942575f366003190112610942576040515f6001826001549261123384613246565b92838352602094856001821691825f146112cd575050600114611272575b5061125e925003836132ea565b610a026040519282849384528301906130a6565b84915060015f527fb10e2d527612073b26eecdfd717e6a320cf44b4afac2b0732d9fcbe2b7fa0cf6905f915b8583106112b557505061125e935082010185611251565b8054838901850152879450869390920191810161129e565b60ff19168582015261125e95151560051b85010192508791506112519050565b3461094257602036600319011261094257611306613059565b61130e61397f565b601280546001600160a01b0319166001600160a01b039290921691821790557fa74152e66a85fad4696c106d7db233d075cc42dcac471f5d6c9f5a524887df045f80a2005b346109425760403660031901126109425761136c61306f565b6004355f52600660205260405f209060018060a01b03165f52602052602060ff60405f2054166040519015158152f35b3461094257602080600319360112610942576001600160a01b0390816113c0613059565b165f526010815260405f208054906113d7826134b4565b936113e560405195866132ea565b8285525f91825283822090848087015b8585106115175787825f805b835181101561143e5760ff60a06114188387613766565b510151161561142a575b600101611401565b9061143660019161377a565b919050611422565b5090611449826134b4565b9161145760405193846132ea565b808352611466601f19916134b4565b015f5b8181106114dd575050505f905f5b83518110156114cf5760ff60a061148e8387613766565b51015116156114a0575b600101611477565b916114c76001916114b18587613766565b516114bc8286613766565b52610cab8185613766565b929050611498565b60405180610a0284826133ad565b82906040516114eb81613299565b5f8152606080848301525f60408301525f8183015260808201525f60a082015282828701015201611469565b60019160069160405161152981613299565b85875416815261153a85880161330b565b83820152600287015460408201526003870154606082015261155e6004880161330b565b608082015260ff60058801541660a082015281520193019301929185906113f5565b34610942576020806003193601126109425761159a613059565b6115a2613c34565b6001600160a01b038116908115610930577fa49807205ce4d355092ef5a8a18f56e8913cf4a201fbe287825b095693c217755f526006835260405f20335f52835260ff60405f2054168015611677575b1561161e57815f52600b835260ff60405f205416610e2257610d5b9160075492838093610d538261377a565b60405162461bcd60e51b815260048101849052602b60248201527f43616c6c6572206973206e6f7420617574686f72697a656420746f206d696e7460448201526a206964656e74697469657360a81b6064820152608490fd5b505f805160206141ee8339815191525f526006835260405f20335f52835260ff60405f2054166115f2565b3461094257602080600319360112610942576116bc613059565b906116c5613c34565b6001600160a01b0391826116d761400a565b165f52600b825260ff60405f2054161561090c578216918215610930576116fc61400a565b1690815f52600a815260405f20835f52815260ff60405f2054161561179c577f6f6a404ffd2cea4713256a4fd9ce99c8cf8cf32d85c2bb8061d1603ff57d50c390825f52600a815260405f20845f52815260405f2060ff198154169055825f52600a815260405f20845f52815242600160405f200155825f52600b815242600360405f200155604051428152a360015f805160206141ce83398151915255005b6040516334a791f560e11b8152600490fd5b34610942576060366003190112610942576117c7613059565b6001600160401b0390602435828111610942576117e89036906004016131d5565b9091604435926117f6613c34565b6001600160a01b03928361180861400a565b165f526020600b815260ff60405f2054161561090c57848416948515610930576118318561385f565b1561091e5761183e61400a565b87151580611a60575b611a4e571693845f52600a825260405f20865f52825260ff60405f20541615611a34575b50604051956118798761327e565b6001968781526003838201918383526040810142815261189a36888a61347e565b9360608301948552895f52600a875260405f208b5f5287526118cf60405f2093511515849060ff801983541691151516179055565b518b83015551600282015501905198895190811161074a576118f18254613246565b601f81116119ee575b5083601f821160011461197f5781905f805160206141ae83398151915298999a9b5f92611974575b50505f19600383901b1c1916908a1b1790555b855f52600b825242600360405f20015561195c604051948594604086526040860191613746565b918301520390a35f805160206141ce83398151915255005b015190508b80611922565b601f1982169a835f52855f209b5f5b8181106119d95750918b9c91845f805160206141ae8339815191529b9c9d9594106119c1575b505050811b019055611935565b01515f1960f88460031b161c191690558b80806119b4565b838301518e559c8c019c92870192870161198e565b825f52845f20601f830160051c810191868410611a2a575b601f0160051c01908a905b828110611a1f5750506118fa565b5f8155018a90611a11565b9091508190611a06565b611a4890855f52600d835260405f20613788565b8761186b565b60405163212be55960e11b8152600490fd5b5042881115611847565b34610942575f366003190112610942576040517f00000000000000000000000000000000000000000000000000000000000000006001600160a01b03168152602090f35b34610942575f3660031901126109425760206040517fa49807205ce4d355092ef5a8a18f56e8913cf4a201fbe287825b095693c217758152f35b34610942576020366003190112610942576001600160a01b03611b09613059565b165f52600b602052602060ff60405f2054166040519015158152f35b34610942576020366003190112610942576001600160a01b03611b46613059565b168015611b63575f526003602052602060405f2054604051908152f35b6040516322718ad960e21b81525f6004820152602490fd5b34610942576020366003190112610942576001600160a01b03611b9c613059565b165f52600b602052608060405f2060ff8154169060018101549060036002820154910154916040519315158452602084015260408301526060820152f35b3461094257602036600319011261094257611bf3613c34565b6001600160a01b03611c0361400a565b165f52600b60205260ff60405f2054161561090c576001600160a01b03611c2861400a565b16805f52601060205260405f2080546004351015611f2957611c4d9060043590613719565b509060058201805460ff8116611f175760ff19166001179055600382015480611f0857505f915b5f828152600a6020908152604080832084546001600160a01b031680855292529091205460ff1615611eed575b50604051611cae8161327e565b6001815260208101848152604082014281526040519060408201926001600160401b03938381108582111761074a5760405260048352631195531360e21b602084015260608501928352865f52600a60205260405f2060018060a01b038754165f52602052611d3060405f2095511515869060ff801983541691151516179055565b51600185015551600284015551805191821161074a57611d536003840154613246565b601f8111611ea5575b50602090601f8311600114611e2857825f805160206141ae8339815191529593608095936003935f92611e1d575b50508160011b915f1990841b1c1916179101555b835f52600b60205242600360405f20015560018060a01b039054169384847f46b1c8cd3aba16bb78f02b76f4984f654834c33a6f0725cc30c467a0d2542c3b60206040516004358152a3604051906040825260046040830152631195531360e21b60608301526020820152a360015f805160206141ce83398151915255005b015190508980611d8a565b90600384015f5260205f20915f5b601f1985168110611e8d575083608095936003936001935f805160206141ae8339815191529997601f19811610611e76575b505050811b01910155611d9e565b01515f1983861b60f8161c19169055898080611e68565b91926020600181928685015181550194019201611e36565b600384015f5260205f20601f840160051c81019160208510611ee3575b601f0160051c01905b818110611ed85750611d5c565b5f8155600101611ecb565b9091508190611ec2565b611f0290835f52600d60205260405f20613788565b83611ca1565b42018042116106725791611c74565b604051630c7c316960e41b8152600490fd5b6040516307f5c06560e01b8152600490fd5b34610942575f366003190112610942576012546040516001600160a01b039091168152602090f35b3461094257602036600319011261094257600435611f7f613c34565b6001600160a01b0380611f9061400a565b165f52600b60205260ff60405f2054161561090c5780611fae61400a565b1690815f52601060205260405f208054841015611f295783611fcf91613719565b50600581019182549160ff8316611f17577f946342f1ea466961bd5cf61d6c83708edf5d1ebda644a5ef50793ea6df55883d93600260209460ff1916179055845f52600b835242600360405f200155541693604051908152a360015f805160206141ce83398151915255005b3461094257604036600319011261094257612054613059565b6024356001600160401b038111610942576120739036906004016131d5565b919061207d61397f565b6001600160a01b038216928315610930576120cf7fa3b5502b305087a36d5c8786a0673e0c3233be66c5838d336d966360d8b6568293855f52600f60205260405f20600160ff19825416179055613a3f565b506120e7604051928392602084526020840191613746565b0390a2005b3461094257604036600319011261094257612105613059565b61210d61306f565b9060018060a01b038091165f52600a60205260405f2091165f5260205260405f2060ff815416610a0260018301549261214d60036002830154920161330b565b9060405194859415158552602085015260408401526080606084015260808301906130a6565b34610942576020366003190112610942576020612191600435613945565b6040516001600160a01b039091168152f35b34610942576040366003190112610942576121bc613059565b6121c461306f565b906060806040516121d48161327e565b5f81525f60208201525f6040820152015260018060a01b038091165f52600a60205260405f2091165f5260205260405f20604051906122128261327e565b60ff81541615158252600181015490602083019182526122406003600283015492604086019384520161330b565b6060840190815283511515918261228e575b610a0292936040519586951515865260406020870152511515604086015251606085015251608084015251608060a084015260c08301906130a6565b610a029250835180159081156122a7575b509250612252565b905042108661229f565b3461094257602080600319360112610942576122cb613059565b6001600160a01b039081165f90815260108352604081208054929392906122f1826134b4565b946122ff60405196876132ea565b8286525f91825284822090858088015b858510612361578882885f5b83518110156123585760ff60a06123328387613766565b5101511615612344575b60010161231b565b9061235060019161377a565b91905061233c565b50604051908152f35b60019160069160405161237381613299565b85875416815261238485880161330b565b8382015260028701546040820152600387015460608201526123a86004880161330b565b608082015260ff60058801541660a0820152815201930193019291869061230f565b3461094257602080600319360112610942576001600160a01b03806123ed613059565b1690815f52600d835260405f206040518082868294549384815201905f52865f20925f5b888282106125de57505050612428925003826132ea565b5f915f5b82518110156124d957845f52600a865260405f208261244b8386613766565b51165f52865260405f206040516124618161327e565b60ff8254161515815261248b60036001840154938a8401948552600281015460408501520161330b565b606082015251151590816124bc575b506124a8575b60010161242c565b926124b460019161377a565b9390506124a0565b518015915081156124cf575b508761249a565b90504210876124c8565b50916124e4816134b4565b906124f260405192836132ea565b808252612501601f19916134b4565b0136868301375f915f5b81518110156125d057855f52600a875260405f208561252a8385613766565b51165f52875260405f206040516125408161327e565b60ff8254161515815261256a60036001840154938b8401948552600281015460408501520161330b565b606082015251151590816125b3575b50612587575b60010161250b565b926125ab600191866125998786613766565b51166125a58287613766565b5261377a565b93905061257f565b518015915081156125c6575b5088612579565b90504210886125bf565b60405180610a028582613202565b85548816845260019586019587955093019201612411565b34610942576020366003190112610942576001600160a01b03612617613059565b165f52600c602052602060405f2054604051908152f35b3461094257608036600319011261094257612647613059565b6024356001600160401b038111610942576126669036906004016131d5565b6064929192356001600160401b038111610942576126889036906004016131d5565b939091612693613c34565b6001600160a01b03841615610930576126b26126ad61400a565b61385f565b1561091e576126bf61400a565b6001600160a01b0385165f908152600b602052604090205460ff161561090c576001600160a01b0385165f90815260106020526040812080549590915b868110612a90575061274690604051986127158a613299565b6001600160a01b0385168a5261272c36878961347e565b60208b01524260408b015260443560608b0152369161347e565b60808801525f60a0880152600160401b85101561074a578461276d91600182018155613719565b9690966108e757805187546001600160a01b0319166001600160a01b039190911617875560208101518051906001600160401b03821161074a5781906127b660018b0154613246565b601f8111612a40575b50602090601f83116001146129d2575f926129c7575b50508160011b915f199060031b1c19161760018801555b604081015160028801556060810151600388015560808101519687516001600160401b03811161074a576128236004830154613246565b601f811161297f575b506020601f82116001146128ea5760ff928260a0936005937f451f66c1f6a1d810e9b20eefd61cdf36a4f6cbae964898aeb1f75bbdaaf3fb179b9c9d5f926128df575b50508160011b915f199060031b1c19161760048201555b019201511660ff198254161790556128ab604051938493606085526060850191613746565b602083019590955260443560408301526001600160a01b039081169516930390a360015f805160206141ce83398151915255005b015190508d8061286f565b600483015f5260205f20995f5b601f19841681106129675750926001837f451f66c1f6a1d810e9b20eefd61cdf36a4f6cbae964898aeb1f75bbdaaf3fb179a9b9c60059460ff9760a097601f1981161061294f575b505050811b016004820155612886565b01515f1960f88460031b161c191690558d808061293f565b828201518c556001909b019a602092830192016128f7565b600483015f5260205f20601f830160051c810191602084106129bd575b601f0160051c01905b8181106129b2575061282c565b5f81556001016129a5565b909150819061299c565b0151905089806127d5565b925060018a015f5260205f20905f935b601f1984168510612a25576001945083601f19811610612a0d575b505050811b0160018801556127ec565b01515f1960f88460031b161c191690558980806129fd565b818101518355602094850194600190930192909101906129e2565b90915060018a015f5260205f20601f840160051c810160208510612a89575b90849392915b601f830160051c82018110612a7b5750506127bf565b5f8155859450600101612a65565b5080612a5f565b612a9a8184613719565b50546001600160a01b0385811691161480612ace575b612abc576001016126fc565b60405163bd35bead60e01b8152600490fd5b5060ff6005612add8386613719565b5001541615612ab0565b34610942576020366003190112610942576020612b02613059565b6040517f00000000000000000000000000000000000000000000000000000000000000006001600160a01b039081169216919091148152f35b34610942576020366003190112610942576001600160a01b03612b5c613059565b165f52600f602052602060ff60405f2054166040519015158152f35b3461094257602036600319011261094257612b91613059565b5f6060604051612ba08161327e565b828152826020820152826040820152015260018060a01b03165f52600b602052608060405f20604051612bd28161327e565b60ff825416151591828252600181015460208301908152606060036002840154936040860194855201549301928352604051938452516020840152516040830152516060820152f35b3461094257610e71612c2c366131a0565b9060405192612c3a846132cf565b5f845261118283838361353e565b3461094257606036600319011261094257612c61613059565b6044356001600160401b03811161094257612cc6612cc0612c89612ccf9336906004016131d5565b91907f19457468657265756d205369676e6564204d6573736167653a0a3332000000005f52602435601c52603c5f2092369161347e565b90614063565b9092919261409d565b6001600160a01b039182169116811480612cf1575b6020906040519015158152f35b505f52600b602052602060ff60405f205416612ce4565b3461094257604036600319011261094257612d2161306f565b6001600160a01b0380612d3261400a565b1690821603612d4757610e7190600435613be1565b60405163334bd91960e11b8152600490fd5b3461094257604036600319011261094257610e71600435612d7861306f565b90805f526006602052612d91600160405f200154613a09565b613ae9565b34610942576020366003190112610942576001600160a01b03612db7613059565b165f526008602052602060405f2054604051908152f35b34610942576020366003190112610942576004355f5260066020526020600160405f200154604051908152f35b3461094257610e71612e0c366131a0565b9161353e565b3461094257602080600319360112610942576001600160a01b03612e34613059565b165f52600c60205260405f208054612e4b816134b4565b91612e5960405193846132ea565b81835260208301905f5260205f20935f915b838310612e805760405180610a02878261313d565b600782600192612e8f896134cb565b815201960192019194612e6b565b3461094257604036600319011261094257612eb6613059565b5060405163216dcda760e01b8152600490fd5b3461094257602036600319011261094257600435612ee681613945565b505f526004602052602060018060a01b0360405f205416604051908152f35b34610942575f366003190112610942576040515f80549082612f2683613246565b91828252602093600190856001821691825f146112cd575050600114612f53575061125e925003836132ea565b5f808052859250907f290decd9548b62a8d60345a988386fc84ba6bc95484008f6362f93160ef3e5635b858310612f9457505061125e935082010185611251565b80548389018501528794508693909201918101612f7d565b34610942576020366003190112610942576020612fca6126ad613059565b6040519015158152f35b34610942576020366003190112610942576004359063ffffffff60e01b821680920361094257602091637965db0b60e01b8114908115613016575b5015158152f35b6380ac58cd60e01b811491508115613048575b8115613037575b508361300f565b6301ffc9a760e01b14905083613030565b635b5e139f60e01b81149150613029565b600435906001600160a01b038216820361094257565b602435906001600160a01b038216820361094257565b5f5b8381106130965750505f910152565b8181015183820152602001613087565b906020916130bf81518092818552858086019101613085565b601f01601f1916010190565b9060c0806131326131206130e8865160e0875260e08701906130a6565b6020870151602087015260018060a01b03604088015116604087015260608701516060870152608087015186820360808801526130a6565b60a086015185820360a08701526130a6565b930151151591015290565b6020808201906020835283518092526040830192602060408460051b8301019501935f915b8483106131725750505050505090565b9091929394958480613190600193603f198682030187528a516130cb565b9801930193019194939290613162565b6060906003190112610942576001600160a01b0390600435828116810361094257916024359081168103610942579060443590565b9181601f84011215610942578235916001600160401b038311610942576020838186019501011161094257565b60209060206040818301928281528551809452019301915f5b828110613229575050505090565b83516001600160a01b03168552938101939281019260010161321b565b90600182811c92168015613274575b602083101461326057565b634e487b7160e01b5f52602260045260245ffd5b91607f1691613255565b608081019081106001600160401b0382111761074a57604052565b60c081019081106001600160401b0382111761074a57604052565b60e081019081106001600160401b0382111761074a57604052565b602081019081106001600160401b0382111761074a57604052565b90601f801991011681019081106001600160401b0382111761074a57604052565b9060405191825f825461331d81613246565b908184526020946001916001811690815f1461338b575060011461334d575b50505061334b925003836132ea565b565b5f90815285812095935091905b81831061337357505061334b93508201015f808061333c565b8554888401850152948501948794509183019161335a565b9250505061334b94925060ff191682840152151560051b8201015f808061333c565b6020808201908083528351809252604092604081018260408560051b8401019601945f925b8584106133e3575050505050505090565b909192939495968580600192603f198582030187528a519061344561342060c0878060a01b038551168452858501519080878601528401906130a6565b88840151898401526060808501519084015260808085015190848303908501526130a6565b9160ff60a080920151169101529901940194019295949391906133d2565b6001600160401b03811161074a57601f01601f191660200190565b92919261348a82613463565b9161349860405193846132ea565b829481845281830111610942578281602093845f960137010152565b6001600160401b03811161074a5760051b60200190565b906040516134d8816132b4565b60c060ff600683956134e98161330b565b85526001810154602086015260028101546001600160a01b031660408601526003810154606086015261351e6004820161330b565b608086015261352f6005820161330b565b60a08601520154161515910152565b6001600160a01b0391821692909183156137015761355a61400a565b92825f526020946002865260409583875f2054161515806136f9575b6136e857908491825f52600281528480895f20541697168015158061364f575b505060029087613620575b825f5260038152885f2060018154019055835f5252865f20816001600160601b0360a01b825416179055857fddf252ad1be2c89b69c2b068fc378daa952ba7f163c4a11628f55a4df523b3ef5f80a416928383036135ff5750505050565b6064945051926364283d7b60e01b8452600484015260248301526044820152fd5b5f8481526004825289812080546001600160a01b03191690558881526003825289902080545f190190556135a1565b9293509091806136a7575b15613669579081869392613596565b85889188155f1461368b57506024915190637e27328960e01b82526004820152fd5b90604492519163177e802f60e01b835260048301526024820152fd5b5080871480156136cc575b8061365a5750855f52600482528085895f2054161461365a565b50865f5260058252875f20815f52825260ff885f2054166136b2565b865163216dcda760e01b8152600490fd5b506001613576565b604051633250574960e11b81525f6004820152602490fd5b8054821015613732575f52600660205f20910201905f90565b634e487b7160e01b5f52603260045260245ffd5b908060209392818452848401375f828201840152601f01601f1916010190565b80518210156137325760209160051b010190565b5f1981146106725760010190565b805490600160401b82101561074a5760018201808255821015613732575f5260205f20019060018060a01b03166001600160601b0360a01b825416179055565b8054821015613732575f52600760205f20910201905f90565b604051906137ee826132b4565b5f60c0836060815282602082015282604082015282606082015260606080820152606060a08201520152565b81601f8201121561094257805161383081613463565b9261383e60405194856132ea565b818452602082840101116109425761385c9160208085019101613085565b90565b6001600160a01b039081165f818152600f602052604090205490919060ff1661393e5780601254169182613894575050505f90565b5f906024604051809581936301e1279f60e71b835260048301525afa9182915f936138c5575b505061385c57505f90565b909192503d805f843e6138d881846132ea565b8201608083820312610942578251906001600160401b0391828111610942578161390391860161381a565b5060208401519182116109425761391b91840161381a565b506040820151908116036109425760600151801515810361094257905f806138ba565b5050600190565b5f818152600260205260409020546001600160a01b0316908115613967575090565b60249060405190637e27328960e01b82526004820152fd5b61398761400a565b6001600160a01b03165f8181527f0c3bb05773fb95f6688e1e7d9c896674dccd66884026cf30a3d5e3a9bfecd81160205260409020547fa49807205ce4d355092ef5a8a18f56e8913cf4a201fbe287825b095693c217759060ff16156139eb575050565b604492506040519163e2517d3f60e01b835260048301526024820152fd5b613a1161400a565b90805f52600660205260405f209160018060a01b031691825f5260205260ff60405f205416156139eb575050565b6001600160a01b039081165f8181527feb672b6d912585c0d93b49db126f2f693955125c889e480e9612936bfb3a9a8c60205260409020545f805160206141ee833981519152929060ff16613ae257825f52600660205260405f20825f5260205260405f20600160ff19825416179055613ab761400a565b16917f2f8788117e7eff1d82e926ec794901d17c78024a50270940304540a733656f0d5f80a4600190565b5050505f90565b90815f52600660205260405f209060018060a01b0380911691825f5260205260ff60405f205416155f14613ae257825f52600660205260405f20825f5260205260405f20600160ff19825416179055613ab761400a565b6001600160a01b039081165f8181527feb672b6d912585c0d93b49db126f2f693955125c889e480e9612936bfb3a9a8c60205260409020545f805160206141ee833981519152929060ff1615613ae257825f52600660205260405f20825f5260205260405f2060ff198154169055613bb661400a565b16917ff6391f5c32d9c69d2a47ea670b442974b53935d1edc7fd64eb21e047a839171b5f80a4600190565b90815f52600660205260405f209060018060a01b0380911691825f5260205260ff60405f2054165f14613ae257825f52600660205260405f20825f5260205260405f2060ff198154169055613bb661400a565b5f805160206141ce8339815191526002815414613c515760029055565b604051633ee5aeb560e01b8152600490fd5b906040805192613c72846132cf565b5f84526001600160a01b0393818516938415613ea957805f526020956002875280855f205416151580613ea1575b613e9057815f526002875280855f20541682878215159283613e64575b5f82815260038c528981208054600101905583815260028c5289812080546001600160a01b031916841790557fddf252ad1be2c89b69c2b068fc378daa952ba7f163c4a11628f55a4df523b3ef9080a4613e4d57613d1961400a565b933b613d29575b50505050505050565b90869794959691613d6887519485938493630a85bd0160e11b988986521660048501525f602485015260448401526080606484015260848301906130a6565b03815f895af15f9181613e0d575b50613dd4575050503d5f14613dcc573d92613d9084613463565b93613d9d835195866132ea565b84523d5f8286013e5b83519384613dc6578251633250574960e11b815260048101859052602490fd5b84925001fd5b606092613da6565b9194506001600160e01b031990911603613df65750505f808080808080613d20565b602492505190633250574960e11b82526004820152fd5b9091508681813d8311613e46575b613e2581836132ea565b8101031261094257516001600160e01b03198116810361094257905f613d76565b503d613e1b565b84516339e3563760e11b81525f6004820152602490fd5b60048b525f89812080546001600160a01b031916905581815260038c5289902080545f19019055613cbd565b845163216dcda760e01b8152600490fd5b506001613ca0565b8351633250574960e11b81525f6004820152602490fd5b9293909193843b613ed3575b5050505050565b604051630a85bd0160e11b8082526001600160a01b039586166004830152938516602482015260448101919091526080606482015260209594909316939290859082908190613f269060848301906130a6565b03815f885af15f9181613fca575b50613f93575050503d5f14613f8b573d91613f4e83613463565b92613f5c60405194856132ea565b83523d5f8285013e5b82519283613f8657604051633250574960e11b815260048101849052602490fd5b019050fd5b606091613f65565b9193506001600160e01b031990911603613fb257505f80808080613ecc565b60249060405190633250574960e11b82526004820152fd5b9091508581813d8311614003575b613fe281836132ea565b8101031261094257516001600160e01b03198116810361094257905f613f34565b503d613fd8565b601436101580614031575b1561402d576013193601368111610942573560601c90565b3390565b50337f00000000000000000000000000000000000000000000000000000000000000006001600160a01b031614614015565b81519190604183036140935761408c9250602082015190606060408401519301515f1a90614120565b9192909190565b50505f9160029190565b600481101561410c57806140af575050565b600181036140c95760405163f645eedf60e01b8152600490fd5b600281036140ea5760405163fce698f760e01b815260048101839052602490fd5b6003146140f45750565b602490604051906335e2f38360e21b82526004820152fd5b634e487b7160e01b5f52602160045260245ffd5b91907f7fffffffffffffffffffffffffffffff5d576e7357a4501ddfe92f46681b20a084116141a2579160209360809260ff5f9560405194855216868401526040830152606082015282805260015afa15614197575f516001600160a01b0381161561418d57905f905f90565b505f906001905f90565b6040513d5f823e3d90fd5b5050505f916003919056fe3cb7f6eca2e89478480f2e19de24bf888294c28de0d596963a54d49a51e2252d9b779b17422d0df92223018b32b4d1fa46e071723d6817e2486d003becc55f00c8f5b4140cca307cd927e59cbeea8291bffeee228fc677f0fa059aef7b4dd8d5a264697066735822122052b76bd1607cd431a431874d0505241f5438374153cba4ae515fe23340d04cc764736f6c634300081800332f8788117e7eff1d82e926ec794901d17c78024a50270940304540a733656f0d54cdd369e4e8a8515e52ca72ec816c2101831ad1f18bf44102ed171459c9b4f8","linkReferences":{}},"methodIdentifiers":{"ADMIN_ROLE()":"75b238fc","DEFAULT_ADMIN_ROLE()":"a217fddf","HOSPITAL_ROLE()":"f6ba6678","accessPermissions(address,address)":"64b3b525","addMedicalRecord(address,string,bytes32,string,string)":"f76b6893","approve(address,uint256)":"095ea7b3","approveAccessRequest(uint256)":"6be38131","balanceOf(address)":"70a08231","checkAccess(address,address)":"62e1f745","getAccessGrantMessageHash(address,address,string,uint256,uint256)":"c4f938b2","getAccessRequests(address)":"cf374334","getActiveAccessors(address)":"5d5be45b","getApproved(uint256)":"081812fc","getGrantedAccessList(address)":"ee756971","getPatientId(address)":"2604fa7b","getPatientProfile(address)":"461a2082","getPatientRecords(address)":"18bd4847","getPendingAccessRequestCount(address)":"62b54263","getPendingAccessRequests(address)":"8a45886e","getRecordByIndex(address,uint256)":"e68cc4a3","getRecordCount(address)":"58214308","getRecordsByHospital(address,address)":"dd5cd4a5","getRoleAdmin(bytes32)":"248a9ca3","getTotalPatients()":"f497e189","grantAccess(address,string,uint256)":"7f93a961","grantRole(bytes32,address)":"2f2ff15d","hasPatientIdentity(address)":"71b567d2","hasRole(bytes32,address)":"91d14854","hospitalRegistry()":"69b80fc9","isApprovedForAll(address,address)":"e985e9c5","isHospitalAuthorized(address)":"0425fb8e","isTrustedForwarder(address)":"572b6c05","isWhitelistedHospital(address)":"50bf7c67","mintIdentity(address)":"86f66622","name()":"06fdde03","ownerOf(uint256)":"6352211e","patientIdToWallet(uint256)":"d1d776cb","patientProfiles(address)":"6ea3e199","recordHashExists(bytes32)":"ab926a91","rejectAccessRequest(uint256)":"698a24ad","removeHospitalFromWhitelist(address)":"ead64772","renounceRole(bytes32,address)":"36568abe","requestAccess(address,string,uint256,string)":"58213d92","revokeAccess(address)":"85e68531","revokeRole(bytes32,address)":"d547741f","safeTransferFrom(address,address,uint256)":"42842e0e","safeTransferFrom(address,address,uint256,bytes)":"b88d4fde","selfRegister()":"d86a28bb","setApprovalForAll(address,bool)":"a22cb465","setHospitalRegistry(address)":"93eecc07","supportsInterface(bytes4)":"01ffc9a7","symbol()":"95d89b41","tokenURI(uint256)":"c87b56dd","transferFrom(address,address,uint256)":"23b872dd","trustedForwarder()":"7da0a877","verifyPatientSignature(address,bytes32,bytes)":"39193535","verifyRecord(address,uint256)":"bbb73739","walletToPatientId(address)":"23ecb058","whitelistHospital(address,string)":"673de288"},"id":52}