{"abi":[{"type":"constructor","inputs":[{"name":"_owner","type":"address","internalType":"address"}],"stateMutability":"nonpayable"},{"type":"receive","stateMutability":"payable"},{"type":"function","name":"eip712Domain","inputs":[],"outputs":[{"name":"fields","type":"bytes1","internalType":"bytes1"},{"name":"name","type":"string","internalType":"string"},{"name":"version","type":"string","internalType":"string"},{"name":"chainId","type":"uint256","internalType":"uint256"},{"name":"verifyingContract","type":"address","internalType":"address"},{"name":"salt","type":"bytes32","internalType":"bytes32"},{"name":"extensions","type":"uint256[]","internalType":"uint256[]"}],"stateMutability":"view"},{"type":"function","name":"execute","inputs":[{"name":"request","type":"tuple","internalType":"struct ERC2771Forwarder.ForwardRequestData","components":[{"name":"from","type":"address","internalType":"address"},{"name":"to","type":"address","internalType":"address"},{"name":"value","type":"uint256","internalType":"uint256"},{"name":"gas","type":"uint256","internalType":"uint256"},{"name":"deadline","type":"uint48","internalType":"uint48"},{"name":"data","type":"bytes","internalType":"bytes"},{"name":"signature","type":"bytes","internalType":"bytes"}]}],"outputs":[],"stateMutability":"payable"},{"type":"function","name":"executeBatch","inputs":[{"name":"requests","type":"tuple[]","internalType":"struct ERC2771Forwarder.ForwardRequestData[]","components":[{"name":"from","type":"address","internalType":"address"},{"name":"to","type":"address","internalType":"address"},{"name":"value","type":"uint256","internalType":"uint256"},{"name":"gas","type":"uint256","internalType":"uint256"},{"name":"deadline","type":"uint48","internalType":"uint48"},{"name":"data","type":"bytes","internalType":"bytes"},{"name":"signature","type":"bytes","internalType":"bytes"}]},{"name":"refundReceiver","type":"address","internalType":"address payable"}],"outputs":[],"stateMutability":"payable"},{"type":"function","name":"fund","inputs":[],"outputs":[],"stateMutability":"payable"},{"type":"function","name":"gasUsedByUser","inputs":[{"name":"","type":"address","internalType":"address"}],"outputs":[{"name":"","type":"uint256","internalType":"uint256"}],"stateMutability":"view"},{"type":"function","name":"getBalance","inputs":[],"outputs":[{"name":"","type":"uint256","internalType":"uint256"}],"stateMutability":"view"},{"type":"function","name":"getStats","inputs":[],"outputs":[{"name":"_totalRelayed","type":"uint256","internalType":"uint256"},{"name":"_balance","type":"uint256","internalType":"uint256"},{"name":"_maxGas","type":"uint256","internalType":"uint256"},{"name":"_isPaused","type":"bool","internalType":"bool"}],"stateMutability":"view"},{"type":"function","name":"maxGasLimit","inputs":[],"outputs":[{"name":"","type":"uint256","internalType":"uint256"}],"stateMutability":"view"},{"type":"function","name":"nonces","inputs":[{"name":"owner","type":"address","internalType":"address"}],"outputs":[{"name":"","type":"uint256","internalType":"uint256"}],"stateMutability":"view"},{"type":"function","name":"owner","inputs":[],"outputs":[{"name":"","type":"address","internalType":"address"}],"stateMutability":"view"},{"type":"function","name":"pause","inputs":[],"outputs":[],"stateMutability":"nonpayable"},{"type":"function","name":"paused","inputs":[],"outputs":[{"name":"","type":"bool","internalType":"bool"}],"stateMutability":"view"},{"type":"function","name":"renounceOwnership","inputs":[],"outputs":[],"stateMutability":"nonpayable"},{"type":"function","name":"setMaxGasLimit","inputs":[{"name":"_maxGasLimit","type":"uint256","internalType":"uint256"}],"outputs":[],"stateMutability":"nonpayable"},{"type":"function","name":"totalRelayedTransactions","inputs":[],"outputs":[{"name":"","type":"uint256","internalType":"uint256"}],"stateMutability":"view"},{"type":"function","name":"transferOwnership","inputs":[{"name":"newOwner","type":"address","internalType":"address"}],"outputs":[],"stateMutability":"nonpayable"},{"type":"function","name":"unpause","inputs":[],"outputs":[],"stateMutability":"nonpayable"},{"type":"function","name":"verify","inputs":[{"name":"request","type":"tuple","internalType":"struct ERC2771Forwarder.ForwardRequestData","components":[{"name":"from","type":"address","internalType":"address"},{"name":"to","type":"address","internalType":"address"},{"name":"value","type":"uint256","internalType":"uint256"},{"name":"gas","type":"uint256","internalType":"uint256"},{"name":"deadline","type":"uint48","internalType":"uint48"},{"name":"data","type":"bytes","internalType":"bytes"},{"name":"signature","type":"bytes","internalType":"bytes"}]}],"outputs":[{"name":"","type":"bool","internalType":"bool"}],"stateMutability":"view"},{"type":"function","name":"withdraw","inputs":[{"name":"_to","type":"address","internalType":"address payable"},{"name":"_amount","type":"uint256","internalType":"uint256"}],"outputs":[],"stateMutability":"nonpayable"},{"type":"event","name":"EIP712DomainChanged","inputs":[],"anonymous":false},{"type":"event","name":"ExecutedForwardRequest","inputs":[{"name":"signer","type":"address","indexed":true,"internalType":"address"},{"name":"nonce","type":"uint256","indexed":false,"internalType":"uint256"},{"name":"success","type":"bool","indexed":false,"internalType":"bool"}],"anonymous":false},{"type":"event","name":"FundsWithdrawn","inputs":[{"name":"to","type":"address","indexed":true,"internalType":"address"},{"name":"amount","type":"uint256","indexed":false,"internalType":"uint256"}],"anonymous":false},{"type":"event","name":"MetaTransactionRelayed","inputs":[{"name":"from","type":"address","indexed":true,"internalType":"address"},{"name":"to","type":"address","indexed":true,"internalType":"address"},{"name":"gasUsed","type":"uint256","indexed":false,"internalType":"uint256"},{"name":"success","type":"bool","indexed":false,"internalType":"bool"}],"anonymous":false},{"type":"event","name":"OwnershipTransferred","inputs":[{"name":"previousOwner","type":"address","indexed":true,"internalType":"address"},{"name":"newOwner","type":"address","indexed":true,"internalType":"address"}],"anonymous":false},{"type":"event","name":"RelayerFunded","inputs":[{"name":"funder","type":"address","indexed":true,"internalType":"address"},{"name":"amount","type":"uint256","indexed":false,"internalType":"uint256"}],"anonymous":false},{"type":"error","name":"ERC2771ForwarderExpiredRequest","inputs":[{"name":"deadline","type":"uint48","internalType":"uint48"}]},{"type":"error","name":"ERC2771ForwarderInvalidSigner","inputs":[{"name":"signer","type":"address","internalType":"address"},{"name":"from","type":"address","internalType":"address"}]},{"type":"error","name":"ERC2771ForwarderMismatchedValue","inputs":[{"name":"requestedValue","type":"uint256","internalType":"uint256"},{"name":"msgValue","type":"uint256","internalType":"uint256"}]},{"type":"error","name":"ERC2771UntrustfulTarget","inputs":[{"name":"target","type":"address","internalType":"address"},{"name":"forwarder","type":"address","internalType":"address"}]},{"type":"error","name":"FailedCall","inputs":[]},{"type":"error","name":"ForwarderPaused","inputs":[]},{"type":"error","name":"GasLimitExceeded","inputs":[]},{"type":"error","name":"InsufficientBalance","inputs":[{"name":"balance","type":"uint256","internalType":"uint256"},{"name":"needed","type":"uint256","internalType":"uint256"}]},{"type":"error","name":"InvalidAccountNonce","inputs":[{"name":"account","type":"address","internalType":"address"},{"name":"currentNonce","type":"uint256","internalType":"uint256"}]},{"type":"error","name":"InvalidShortString","inputs":[]},{"type":"error","name":"OwnableInvalidOwner","inputs":[{"name":"owner","type":"address","internalType":"address"}]},{"type":"error","name":"OwnableUnauthorizedAccount","inputs":[{"name":"account","type":"address","internalType":"address"}]},{"type":"error","name":"StringTooLong","inputs":[{"name":"str","type":"string","internalType":"string"}]},{"type":"error","name":"WithdrawalFailed","inputs":[]}],"bytecode":{"object":"0x610160346200020d576001600160401b0390601f6200187c38819003918201601f1916830192919084841183851017620001f95781602092849260409687528339810103126200020d57516001600160a01b03808216918290036200020d578251916200006c8362000211565b6012835260208301917126b2b234b1b430b4b72337b93bb0b93232b960711b83528451956200009b8762000211565b6001875260208701603160f81b8152620000b5866200022d565b94610120958652620000c789620003f7565b96610140978852519020978860e052519020610100978189524660a05287519160208301917f8b73c3c69bb8fe3d512ecc4cf759cc79239f7b179b0ffacaa9a75d522b39400f83528984015260608301524660808301523060a083015260a0825260c082019282841090841117620001f957828852815190206080523060c0528315620001e3575050600380546001600160a01b031981168417909155945194167f8be0079c531659141344cd1fd0a4f28419497f9722a3daafe3b4186f6b6457e05f80a3620f424060065560ff19600754166007556112dd93846200059f853960805184611128015260a051846111f4015260c051846110f2015260e051846111770152518361119d0152518261078f015251816107b90152f35b631e4fbdf760e01b82525f60c490910152602490fd5b634e487b7160e01b5f52604160045260245ffd5b5f80fd5b604081019081106001600160401b03821117620001f957604052565b805160209081811015620002c75750601f8251116200026857808251920151908083106200025a57501790565b825f19910360031b1b161790565b90604051809263305a27a960e01b82528060048301528251908160248401525f935b828510620002ad575050604492505f838284010152601f80199101168101030190fd5b84810182015186860160440152938101938593506200028a565b906001600160401b038211620001f9575f54926001938481811c91168015620003ec575b83821014620003d857601f8111620003a2575b5081601f84116001146200033c57509282939183925f9462000330575b50501b915f199060031b1c1916175f5560ff90565b015192505f806200031b565b919083601f1981165f8052845f20945f905b888383106200038757505050106200036e575b505050811b015f5560ff90565b01515f1960f88460031b161c191690555f808062000361565b8587015188559096019594850194879350908101906200034e565b5f805284601f845f20920160051c820191601f860160051c015b828110620003cc575050620002fe565b5f8155018590620003bc565b634e487b7160e01b5f52602260045260245ffd5b90607f1690620002eb565b805160209081811015620004835750601f8251116200042457808251920151908083106200025a57501790565b90604051809263305a27a960e01b82528060048301528251908160248401525f935b82851062000469575050604492505f838284010152601f80199101168101030190fd5b848101820151868601604401529381019385935062000446565b9192916001600160401b038111620001f95760019182548381811c9116801562000593575b82821014620003d857601f81116200055d575b5080601f8311600114620004f95750819293945f92620004ed575b50505f19600383901b1c191690821b17905560ff90565b015190505f80620004d6565b90601f19831695845f52825f20925f905b8882106200054557505083859697106200052c575b505050811b01905560ff90565b01515f1960f88460031b161c191690555f80806200051f565b8087859682949686015181550195019301906200050a565b835f5283601f835f20920160051c820191601f850160051c015b82811062000587575050620004bb565b5f815501849062000577565b90607f1690620004a856fe6080604081815260049182361015610029575b505050361561001f575f80fd5b610027610af6565b005b5f3560e01c90816312065fe014610a00575080631776834a146109e057806319d8d38c1461099b5780633f4ba83a146109775780635c975abb146109545780635e45da2314610936578063715018a6146108db5780637ecebe00146108925780638456cb591461086b57806384b0196e1461077557806388930c771461073a5780638da5cb5b14610712578063b60d4288146106ff578063c59d4847146106c6578063ccf96b4a1461045e578063df905caf14610258578063f2fde38b146101cc578063f3fef3a3146101255763fc10010e146101065780610012565b34610121575f36600319011261012157602091549051908152f35b5f80fd5b50903461012157816003193601126101215780356001600160a01b03811692908390036101215760243591610158610b97565b5f80808086885af13d156101c7573d61017081610b7b565b9061017d85519283610ad4565b81525f60203d92013e5b156101b957507feaff4b37086828766ad3268786972c0cd24259d4c87a80f9d3963a3c3d999b0d9160209151908152a2005b90516327fcd9d160e01b8152fd5b610187565b5034610121576020366003190112610121576001600160a01b03823581811693919290849003610121576101fe610b97565b8315610242575050600354826001600160601b0360a01b821617600355167f8be0079c531659141344cd1fd0a4f28419497f9722a3daafe3b4186f6b6457e05f80a3005b905f6024925191631e4fbdf760e01b8352820152fd5b5061026236610a18565b8181013590813403610442575f9161027982610bea565b92919082156104025781156103d75780156103985782610390575b5081610388575b506102b8575b505050156102ab57005b5163d6bda27560e01b8152fd5b9091925060018060a01b031690815f5260026020525f80858120928354936001850190556060860135956102ee60208201610bc3565b9161030c61033e603461030460a0860186610de8565b939095610bc3565b928c5193818592602084019889378201906001600160601b03199060601b166020820152036014810184520182610ad4565b519288f192603f5a91041161038657837f842fb24a83793558587a3dab2be7674da4a51d09c5542d6dd354e5d0ea70813c9181519081528415156020820152a25f80806102a1565bfe5b90505f61029b565b91505f610294565b83896103d38a6103a78a610bc3565b9051636422d02b60e11b81526001600160a01b0394851693810193845293166020830152829160400190565b0390fd5b6024888a65ffffffffffff6103ee60808b01610bd7565b9251634a777ac560e11b8152921690820152fd5b88886103d361041360208a01610bc3565b915163d2650cd160e01b81526001600160a01b0390921692820192835230602084015290918291604090910190565b5090516370647f7960e01b815291820152346024820152604490fd5b5090816003193601126101215767ffffffffffffffff90803582811161012157366023820112156101215780820135928311610121576024936024820191602436918660051b01011161012157602435946001600160a01b03808716808803610121575f96879586949392155b82861061050d575050505050503482036104f257505050806104e957005b61002791610e1b565b516370647f7960e01b81529182015234602482015260449150fd5b90919293949661052b90876105238a8787610b24565b013590610b5a565b96610537818585610b24565b875f91878561054583610bea565b9361066a575b82610662575b508161065a575b50610590575b5050505015610575575b60010194939291906104cb565b98610588600191886105238d8888610b24565b999050610568565b90919293501690815f526020600281525f8085812093845494600186019055606080820135976105c1868401610bc3565b908661060e60346105d560a0880188610de8565b9390966105e189610bc3565b9085875196879485019a8b378301916001600160601b0319911b168c820152036014810184520182610ad4565b519301359089f193603f5a910411610386577f842fb24a83793558587a3dab2be7674da4a51d09c5542d6dd354e5d0ea70813c918b91825191825285151590820152a2875f878161055e565b90505f610558565b91505f610551565b9193509193945082156106b557811561069e57801561068f57918c9493918b9361054b565b838f6103d38f6103a789610bc3565b508a8c8f65ffffffffffff6103ee60808901610bd7565b8e8d6103d361041360208901610bc3565b5034610121575f36600319011261012157608091549047906006549060ff60075416928151948552602085015283015215156060820152f35b5f36600319011261012157610027610af6565b5034610121575f3660031901126101215760035490516001600160a01b039091168152602090f35b50903461012157602036600319011261012157356001600160a01b0381169190829003610121576020915f5260058252805f20549051908152f35b5034610121575f3660031901126101215761080f906107b37f0000000000000000000000000000000000000000000000000000000000000000610ec0565b906107dd7f0000000000000000000000000000000000000000000000000000000000000000610fe4565b61081c8251926107ec84610a88565b5f84526020928151968796600f60f81b885260e0602089015260e0880190610a4a565b9186830390870152610a4a565b4660608501523060808501525f60a085015283810360c0850152602080845192838152019301915f5b82811061085457505050500390f35b835185528695509381019392810192600101610845565b34610121575f36600319011261012157610883610b97565b6007805460ff19166001179055005b5090346101215760203660031901126101215735906001600160a01b0382168203610121576108d460209260018060a01b03165f52600260205260405f205490565b9051908152f35b34610121575f366003190112610121576108f3610b97565b600380546001600160a01b031981169091555f906001600160a01b03167f8be0079c531659141344cd1fd0a4f28419497f9722a3daafe3b4186f6b6457e08280a3005b5034610121575f366003190112610121576020906006549051908152f35b5034610121575f3660031901126101215760209060ff6007541690519015158152f35b34610121575f3660031901126101215761098f610b97565b6007805460ff19169055005b5034610121576020906109b56109b036610a18565b610bea565b5090829392936109d8575b50826109d0575b50519015158152f35b9150836109c7565b9250846109c0565b8234610121576020366003190112610121576109fa610b97565b35600655005b34610121575f36600319011261012157602090478152f35b60031990602081830112610121576004359167ffffffffffffffff8311610121578260e0920301126101215760040190565b91908251928382525f5b848110610a74575050825f602080949584010152601f8019910116010190565b602081830181015184830182015201610a54565b6020810190811067ffffffffffffffff821117610aa457604052565b634e487b7160e01b5f52604160045260245ffd5b6040810190811067ffffffffffffffff821117610aa457604052565b90601f8019910116810190811067ffffffffffffffff821117610aa457604052565b6040513481527f32d3585b833e5805cf7f3267b98f4e4f6611dded139280767b7be3e09d86054160203392a2565b9190811015610b465760051b8101359060de1981360301821215610121570190565b634e487b7160e01b5f52603260045260245ffd5b91908201809211610b6757565b634e487b7160e01b5f52601160045260245ffd5b67ffffffffffffffff8111610aa457601f01601f191660200190565b6003546001600160a01b03163303610bab57565b60405163118cdaa760e01b8152336004820152602490fd5b356001600160a01b03811681036101215790565b3565ffffffffffff811681036101215790565b610bf381610bc3565b9160209081830192610c0484610bc3565b92604093610c2e610c1484610bc3565b6001600160a01b03165f9081526002602052604090205490565b966080840190610c3d82610bd7565b98610c55610c4e60a0880188610de8565b3691610e8a565b858151910120885191868301937f7f96328b83274ebc7c1cf4f7a3abda602b51a78b7fa1d86a2ce353d75e587cac855260018060a01b0396878092168c860152166060840152898801356080840152606088013560a084015260c083015265ffffffffffff809b1660e083015261010090818301528152610120810167ffffffffffffffff9282821084831117610aa457610d27926042928b52519020610cfa6110ef565b908a519161190160f01b83526002830152602282015220610d21610c4e60c0890189610de8565b906110b5565b506004819992991015610dd457610d3f901599610bc3565b81518681019063572b6c0560e01b825230602482015260248152606081019481861090861117610aa45787945f945251915afa5f5190933d85610dc9575b505083610dbd575b50610d8f90610bd7565b9286610da3575b5050944291161015929190565b81929650610db090610bc3565b1690841614935f80610d96565b15159250610d8f610d85565b101593505f80610d7d565b634e487b7160e01b5f52602160045260245ffd5b903590601e1981360301821215610121570180359067ffffffffffffffff82116101215760200191813603831361012157565b814710610e6b575f808093819382604051610e3581610a88565b526001600160a01b03165af115610e4857565b3d15610e59576040513d5f823e3d90fd5b60405163d6bda27560e01b8152600490fd5b60405163cf47918160e01b815247600482015260248101839052604490fd5b929192610e9682610b7b565b91610ea46040519384610ad4565b829481845281830111610121578281602093845f960137010152565b60ff8114610efe5760ff811690601f8211610eec5760405191610ee283610ab8565b8252602082015290565b604051632cd44ac360e21b8152600490fd5b506040515f8054906001908260011c60018416928315610fda575b6020948583108514610fc6578287528694908115610fa65750600114610f4b575b5050610f4892500382610ad4565b90565b5f8080527f290decd9548b62a8d60345a988386fc84ba6bc95484008f6362f93160ef3e56395935091905b818310610f8e575050610f4893508201015f80610f3a565b85548784018501529485019486945091830191610f76565b915050610f4894925060ff191682840152151560051b8201015f80610f3a565b634e487b7160e01b5f52602260045260245ffd5b90607f1690610f19565b60ff81146110065760ff811690601f8211610eec5760405191610ee283610ab8565b506040515f60018054918260011c600184169283156110ab575b6020948583108514610fc6578287528694908115610fa6575060011461104e575050610f4892500382610ad4565b9093915060015f527fb10e2d527612073b26eecdfd717e6a320cf44b4afac2b0732d9fcbe2b7fa0cf6935f915b818310611093575050610f4893508201015f80610f3a565b8554878401850152948501948694509183019161107b565b90607f1690611020565b81519190604183036110e5576110de9250602082015190606060408401519301515f1a9061121a565b9192909190565b50505f9160029190565b307f00000000000000000000000000000000000000000000000000000000000000006001600160a01b031614806111f1575b1561114a577f000000000000000000000000000000000000000000000000000000000000000090565b60405160208101907f8b73c3c69bb8fe3d512ecc4cf759cc79239f7b179b0ffacaa9a75d522b39400f82527f000000000000000000000000000000000000000000000000000000000000000060408201527f000000000000000000000000000000000000000000000000000000000000000060608201524660808201523060a082015260a0815260c0810181811067ffffffffffffffff821117610aa45760405251902090565b507f00000000000000000000000000000000000000000000000000000000000000004614611121565b91907f7fffffffffffffffffffffffffffffff5d576e7357a4501ddfe92f46681b20a0841161129c579160209360809260ff5f9560405194855216868401526040830152606082015282805260015afa15611291575f516001600160a01b0381161561128757905f905f90565b505f906001905f90565b6040513d5f823e3d90fd5b5050505f916003919056fea264697066735822122062f55e638fd9e3df445504c5d2554ce5cf13fb247bae10a74814ba6525110df864736f6c63430008180033","linkReferences":{}},"methodIdentifiers":{"eip712Domain()":"84b0196e","execute((address,address,uint256,uint256,uint48,bytes,bytes))":"df905caf","executeBatch((address,address,uint256,uint256,uint48,bytes,bytes)[],address)":"ccf96b4a","fund()":"b60d4288","gasUsedByUser(address)":"88930c77","getBalance()":"12065fe0","getStats()":"c59d4847","maxGasLimit()":"5e45da23","nonces(address)":"7ecebe00","owner()":"8da5cb5b","pause()":"8456cb59","paused()":"5c975abb","renounceOwnership()":"715018a6","setMaxGasLimit(uint256)":"1776834a","totalRelayedTransactions()":"fc10010e","transferOwnership(address)":"f2fde38b","unpause()":"3f4ba83a","verify((address,address,uint256,uint256,uint48,bytes,bytes))":"19d8d38c","withdraw(address,uint256)":"f3fef3a3"},"id":51}