{"abi":[{"type":"constructor","inputs":[{"name":"_hospitalRegistry","type":"address","internalType":"address"},{"name":"_trustedForwarder","type":"address","internalType":"address"}],"stateMutability":"nonpayable"},{"type":"function","name":"deactivateProfile","inputs":[],"outputs":[],"stateMutability":"nonpayable"},{"type":"function","name":"getBasicInfo","inputs":[{"name":"hospital","type":"address","internalType":"address"}],"outputs":[{"name":"name","type":"string","internalType":"string"},{"name":"hospitalType","type":"string","internalType":"string"},{"name":"city","type":"string","internalType":"string"},{"name":"isVerified","type":"bool","internalType":"bool"},{"name":"isActive","type":"bool","internalType":"bool"}],"stateMutability":"view"},{"type":"function","name":"getHospitalByIndex","inputs":[{"name":"index","type":"uint256","internalType":"uint256"}],"outputs":[{"name":"","type":"address","internalType":"address"}],"stateMutability":"view"},{"type":"function","name":"getHospitalsByCity","inputs":[{"name":"city","type":"string","internalType":"string"}],"outputs":[{"name":"","type":"address[]","internalType":"address[]"}],"stateMutability":"view"},{"type":"function","name":"getProfile","inputs":[{"name":"hospital","type":"address","internalType":"address"}],"outputs":[{"name":"","type":"tuple","internalType":"struct MedichainHospitalProfile.HospitalProfile","components":[{"name":"name","type":"string","internalType":"string"},{"name":"hospitalType","type":"string","internalType":"string"},{"name":"licenseNumber","type":"string","internalType":"string"},{"name":"physicalAddress","type":"string","internalType":"string"},{"name":"city","type":"string","internalType":"string"},{"name":"phone","type":"string","internalType":"string"},{"name":"picName","type":"string","internalType":"string"},{"name":"picPosition","type":"string","internalType":"string"},{"name":"picPhone","type":"string","internalType":"string"},{"name":"picEmail","type":"string","internalType":"string"},{"name":"createdAt","type":"uint256","internalType":"uint256"},{"name":"updatedAt","type":"uint256","internalType":"uint256"},{"name":"isActive","type":"bool","internalType":"bool"}]}],"stateMutability":"view"},{"type":"function","name":"getProfileMetadata","inputs":[{"name":"hospital","type":"address","internalType":"address"}],"outputs":[{"name":"createdAt","type":"uint256","internalType":"uint256"},{"name":"updatedAt","type":"uint256","internalType":"uint256"},{"name":"isActive","type":"bool","internalType":"bool"}],"stateMutability":"view"},{"type":"function","name":"getTotalHospitals","inputs":[],"outputs":[{"name":"","type":"uint256","internalType":"uint256"}],"stateMutability":"view"},{"type":"function","name":"hasProfile","inputs":[{"name":"","type":"address","internalType":"address"}],"outputs":[{"name":"","type":"bool","internalType":"bool"}],"stateMutability":"view"},{"type":"function","name":"hospitalRegistry","inputs":[],"outputs":[{"name":"","type":"address","internalType":"contract IHospitalRegistryExtended"}],"stateMutability":"view"},{"type":"function","name":"isHospitalActive","inputs":[{"name":"hospital","type":"address","internalType":"address"}],"outputs":[{"name":"","type":"bool","internalType":"bool"}],"stateMutability":"view"},{"type":"function","name":"isTrustedForwarder","inputs":[{"name":"forwarder","type":"address","internalType":"address"}],"outputs":[{"name":"","type":"bool","internalType":"bool"}],"stateMutability":"view"},{"type":"function","name":"profileExists","inputs":[{"name":"hospital","type":"address","internalType":"address"}],"outputs":[{"name":"","type":"bool","internalType":"bool"}],"stateMutability":"view"},{"type":"function","name":"reactivateProfile","inputs":[],"outputs":[],"stateMutability":"nonpayable"},{"type":"function","name":"setProfile","inputs":[{"name":"hospitalType","type":"string","internalType":"string"},{"name":"physicalAddress","type":"string","internalType":"string"},{"name":"city","type":"string","internalType":"string"},{"name":"phone","type":"string","internalType":"string"},{"name":"picName","type":"string","internalType":"string"},{"name":"picPosition","type":"string","internalType":"string"},{"name":"picPhone","type":"string","internalType":"string"},{"name":"picEmail","type":"string","internalType":"string"}],"outputs":[],"stateMutability":"nonpayable"},{"type":"function","name":"trustedForwarder","inputs":[],"outputs":[{"name":"","type":"address","internalType":"address"}],"stateMutability":"view"},{"type":"function","name":"updateProfile","inputs":[{"name":"hospitalType","type":"string","internalType":"string"},{"name":"physicalAddress","type":"string","internalType":"string"},{"name":"city","type":"string","internalType":"string"},{"name":"phone","type":"string","internalType":"string"},{"name":"picName","type":"string","internalType":"string"},{"name":"picPosition","type":"string","internalType":"string"},{"name":"picPhone","type":"string","internalType":"string"},{"name":"picEmail","type":"string","internalType":"string"}],"outputs":[],"stateMutability":"nonpayable"},{"type":"event","name":"ProfileCreated","inputs":[{"name":"hospital","type":"address","indexed":true,"internalType":"address"},{"name":"name","type":"string","indexed":false,"internalType":"string"},{"name":"hospitalType","type":"string","indexed":false,"internalType":"string"},{"name":"city","type":"string","indexed":false,"internalType":"string"},{"name":"timestamp","type":"uint256","indexed":false,"internalType":"uint256"}],"anonymous":false},{"type":"event","name":"ProfileDeactivated","inputs":[{"name":"hospital","type":"address","indexed":true,"internalType":"address"},{"name":"timestamp","type":"uint256","indexed":false,"internalType":"uint256"}],"anonymous":false},{"type":"event","name":"ProfileReactivated","inputs":[{"name":"hospital","type":"address","indexed":true,"internalType":"address"},{"name":"timestamp","type":"uint256","indexed":false,"internalType":"uint256"}],"anonymous":false},{"type":"event","name":"ProfileUpdated","inputs":[{"name":"hospital","type":"address","indexed":true,"internalType":"address"},{"name":"timestamp","type":"uint256","indexed":false,"internalType":"uint256"}],"anonymous":false},{"type":"error","name":"EmptyRequiredField","inputs":[]},{"type":"error","name":"HospitalNotVerified","inputs":[]},{"type":"error","name":"IndexOutOfBounds","inputs":[]},{"type":"error","name":"InvalidHospitalType","inputs":[]},{"type":"error","name":"InvalidRegistryAddress","inputs":[]},{"type":"error","name":"NotHospitalOwner","inputs":[]},{"type":"error","name":"ProfileAlreadyActive","inputs":[]},{"type":"error","name":"ProfileAlreadyExists","inputs":[]},{"type":"error","name":"ProfileNotActive","inputs":[]},{"type":"error","name":"ProfileNotFound","inputs":[]},{"type":"error","name":"ReentrancyGuardReentrantCall","inputs":[]}],"bytecode":{"object":"0x60c034620000f257601f62002aef38819003918201601f19168301916001600160401b03831184841017620000f6578084926040948552833981010312620000f2576200005a602062000052836200010a565b92016200010a565b60017f9b779b17422d0df92223018b32b4d1fa46e071723d6817e2486d003becc55f00556080526001600160a01b03168015620000e05760a0526040516129cf9081620001208239608051818181611281015281816115d6015261294b015260a0518181816102950152818161043a0152818161054801528181611383015261280f0152f35b604051637bfd2e8360e01b8152600490fd5b5f80fd5b634e487b7160e01b5f52604160045260245ffd5b51906001600160a01b0382168203620000f25756fe610240806040526004361015610013575f80fd5b5f3560e01c90816305cfa06f14612406575080630f53a47014612105578063140af8531461183d57806320a17bca14611781578063403e2707146115fb578063572b6c05146115a65780635d8ffc76146113b257806369b80fc91461136e57806375db7721146112b05780637da0a8771461126c5780637fed33ff146112185780638caa97ed146111df57806395dd6894146103c0578063a787c80b1461037f578063d401defe146100ee5763eb690f56146100cd575f80fd5b346100ea575f3660031901126100ea576020600254604051908152f35b5f80fd5b346100ea576020806003193601126100ea576004356001600160a01b0381811692918390036100ea57825f526001825260ff60405f2054161561036d57825f525f825260405f20604051926101428461259d565b60405161015a816101538186612612565b03826125b9565b845260405193610178856101718160018701612612565b03866125b9565b818101948552604051610192816101538160028801612612565b60408201526040516101ab816101538160038801612612565b60608201528160ff600c604051956101d1876101ca8160048501612612565b03886125b9565b608085019687526040516101ec816101538160058601612612565b60a0860152604051610205816101538160068601612612565b60c086015260405161021e816101538160078601612612565b60e0860152604051610237816101538160088601612612565b610100860152604051610251816101538160098601612612565b610120860152600a810154610140860152600b810154610160860152015416966101808301971515885260246040518097819363fd9d522160e01b835260048301527f0000000000000000000000000000000000000000000000000000000000000000165afa938415610362575f9461031c575b50946102fd61030b926102f0975196519451925115159460405198899860a08a5260a08a0190612465565b9188830390890152612465565b908582036040870152612465565b911515606084015260808301520390f35b959093508186813d831161035b575b61033581836125b9565b810103126100ea576102fd61030b926103506102f0986127b1565b9592975092506102c5565b503d61032b565b6040513d5f823e3d90fd5b6040516372da560b60e01b8152600490fd5b346100ea5760203660031901126100ea576004356001600160a01b038116908190036100ea575f526001602052602060ff60405f2054166040519015158152f35b346100ea576103ce366124b7565b949e959b939d9460809d99989b939d9a92979a5260c0526101a05260e0526101c052610120526101605295969794929390916104086128f1565b610410612920565b60405163fd9d522160e01b81526001600160a01b03918216600482015290602090829060249082907f0000000000000000000000000000000000000000000000000000000000000000165afa908115610362575f916111a5575b5015611193576001600160a01b03610480612920565b165f52600160205260ff60405f205416611181576104a53661012051610160516126be565b602081519101207f99b6c68d677d3cdb82a74f6b2505208e25a692638accf1d7a62669954fe08d9a8114159081611156575b8161112b575b81611100575b506110ee576101c051156110dc576101a051156110dc5781156110dc57610508612920565b610180526040516101405263017660f560e31b610140515260018060a01b03610180511660046101405101525f6101405160246101405160018060a01b037f0000000000000000000000000000000000000000000000000000000000000000165afa8015610362575f610100525f90611018575b610609936106179796936105d76106259c97946105fc9460405160a0526105a460a05161259d565b6101005160a051526105bd3661012051610160516126be565b602060a0510152604060a051015236906101c051906126be565b606060a05101526105ee366101a05160e0516126be565b608060a051015236916126be565b60a08051015236916126be565b60c060a051015236916126be565b60e060a051015236916126be565b61010060a051015261063c3660805160c0516126be565b61012060a05101524261014060a05101524261016060a0510152600161018060a051015260018060a01b0361018051165f525f60205260405f2060a051518051906001600160401b038211610ba85761069f8261069985546125da565b856126f4565b602090601f8311600114610fb0576106ce92915f9183610c35575b50508160011b915f199060031b1c19161790565b81555b602060a05101518051906001600160401b038211610ba857610703826106fa60018601546125da565b600186016126f4565b602090601f8311600114610f425761073192915f9183610c355750508160011b915f199060031b1c19161790565b60018201555b604060a05101518051906001600160401b038211610ba8576107698261076060028601546125da565b600286016126f4565b602090601f8311600114610ed45761079792915f9183610c355750508160011b915f199060031b1c19161790565b60028201555b606060a05101518051906001600160401b038211610ba8576107cf826107c660038601546125da565b600386016126f4565b602090601f8311600114610e66576107fd92915f9183610c355750508160011b915f199060031b1c19161790565b60038201555b608060a05101518051906001600160401b038211610ba8576108358261082c60048601546125da565b600486016126f4565b602090601f8311600114610df85761086392915f9183610c355750508160011b915f199060031b1c19161790565b60048201555b60a0805101518051906001600160401b038211610ba85761089a8261089160058601546125da565b600586016126f4565b602090601f8311600114610d8a576108c892915f9183610c355750508160011b915f199060031b1c19161790565b60058201555b60c060a05101518051906001600160401b038211610ba857610900826108f760068601546125da565b600686016126f4565b602090601f8311600114610d1c5761092e92915f9183610c355750508160011b915f199060031b1c19161790565b60068201555b60e060a05101518051906001600160401b038211610ba8576109668261095d60078601546125da565b600786016126f4565b602090601f8311600114610cae5761099492915f9183610c355750508160011b915f199060031b1c19161790565b60078201555b61010060a05101518051906001600160401b038211610ba8576109cd826109c460088601546125da565b600886016126f4565b602090601f8311600114610c40576109fb92915f9183610c355750508160011b915f199060031b1c19161790565b60088201555b61012060a0510151908151916001600160401b038311610ba857610a3583610a2c60098501546125da565b600985016126f4565b602090601f8411600114610bc7579280610a6692600c955f92610bbc5750508160011b915f199060031b1c19161790565b60098201555b61014060a0510151600a82015561016060a0510151600b8201550161018060a051015115159060ff199160ff83835416911617905560018060a01b0361018051165f526001602052600160405f209182541617905560025460036020528060405f205568010000000000000000811015610ba857806001610af09201600255612743565b81549060031b9060018060a01b036101805116821b9160018060a01b03901b1916179055604051608081527ff7d91b4fd15f500252d7193ae23aba08123c8a7c84f3a7617de1ff697d4f57c6610b7b610b67610b526080850161010051612465565b848103602086015261012051610160516128d1565b83810360408501526101a05160e0516128d1565b426060840152610180516001600160a01b0316929081900390a260015f8051602061297a83398151915255005b634e487b7160e01b5f52604160045260245ffd5b0151905085806106ba565b90600983015f5260205f20915f5b601f1986168110610c1d5750918491600193600c96601f19811610610c05575b505050811b016009820155610a6c565b01515f1960f88460031b161c19169055848080610bf5565b91926020600181928685015181550194019201610bd5565b0151905084806106ba565b9190600884015f5260205f20905f935b601f1984168510610c93576001945083601f19811610610c7b575b505050811b016008820155610a01565b01515f1960f88460031b161c19169055838080610c6b565b81810151835560209485019460019093019290910190610c50565b9190600784015f5260205f20905f935b601f1984168510610d01576001945083601f19811610610ce9575b505050811b01600782015561099a565b01515f1960f88460031b161c19169055838080610cd9565b81810151835560209485019460019093019290910190610cbe565b9190600684015f5260205f20905f935b601f1984168510610d6f576001945083601f19811610610d57575b505050811b016006820155610934565b01515f1960f88460031b161c19169055838080610d47565b81810151835560209485019460019093019290910190610d2c565b9190600584015f5260205f20905f935b601f1984168510610ddd576001945083601f19811610610dc5575b505050811b0160058201556108ce565b01515f1960f88460031b161c19169055838080610db5565b81810151835560209485019460019093019290910190610d9a565b9190600484015f5260205f20905f935b601f1984168510610e4b576001945083601f19811610610e33575b505050811b016004820155610869565b01515f1960f88460031b161c19169055838080610e23565b81810151835560209485019460019093019290910190610e08565b9190600384015f5260205f20905f935b601f1984168510610eb9576001945083601f19811610610ea1575b505050811b016003820155610803565b01515f1960f88460031b161c19169055838080610e91565b81810151835560209485019460019093019290910190610e76565b9190600284015f5260205f20905f935b601f1984168510610f27576001945083601f19811610610f0f575b505050811b01600282015561079d565b01515f1960f88460031b161c19169055838080610eff565b81810151835560209485019460019093019290910190610ee4565b9190600184015f5260205f20905f935b601f1984168510610f95576001945083601f19811610610f7d575b505050811b016001820155610737565b01515f1960f88460031b161c19169055838080610f6d565b81810151835560209485019460019093019290910190610f52565b9190835f5260205f20905f935b601f1984168510610ffd576001945083601f19811610610fe5575b505050811b0181556106d1565b01515f1960f88460031b161c19169055838080610fd8565b81810151835560209485019460019093019290910190610fbd565b509194939097923d805f610140513e61103481610140516125b9565b6101405101956080610140518803126100ea5761014051516001600160401b03908181116100ea578861106b91610140510161288c565b9760206101405101519182116100ea5761108991610140510161288c565b61014051604001519091906001600160a01b038116036100ea576106259a6105d7610609966105fc946106179b6110c5606061014051016127b1565b5061010052945094979c505093969750935061057c565b6040516314f26f6760e01b8152600490fd5b604051630ec00fe760e11b8152600490fd5b7f4ab540f3b48a5642db7857d855bffddcb48101cf7d35ca6d25a02942cf50406b915014158a6104e3565b7f47752fdd90f8daf9841c35309fc658e2ea9f70cc656fd1f59abaf6597e09e0e581141591506104dd565b7f70b48f1a5f20b0751b1d0cc10b042a31094cfb3944ce5ab7a3cbfbfcb58c590681141591506104d7565b6040516337450d8560e11b8152600490fd5b604051634d2310eb60e11b8152600490fd5b90506020813d6020116111d7575b816111c0602093836125b9565b810103126100ea576111d1906127b1565b8a61046a565b3d91506111b3565b346100ea5760203660031901126100ea576004356001600160a01b03811681036100ea5761120e6020916127be565b6040519015158152f35b346100ea5760203660031901126100ea5760043560025481101561125a57611241602091612743565b905460405160039290921b1c6001600160a01b03168152f35b604051634e23d03560e01b8152600490fd5b346100ea575f3660031901126100ea576040517f00000000000000000000000000000000000000000000000000000000000000006001600160a01b03168152602090f35b346100ea575f3660031901126100ea576112c86128f1565b6001600160a01b03806112d9612920565b165f52600160205260ff60405f2054161561036d576112f6612920565b16805f525f60205260405f20600c8101805460ff811661135c5760019060ff1916179055600b429101557e0329a08b2e3f0ca6d4bc2fcd37bbc67a166fcf3a79a35f4386bccb189444196020604051428152a260015f8051602061297a83398151915255005b60405163eda5f5d360e01b8152600490fd5b346100ea575f3660031901126100ea576040517f00000000000000000000000000000000000000000000000000000000000000006001600160a01b03168152602090f35b346100ea576020806003193601126100ea576004356001600160401b0381116100ea576113e66113ed91369060040161248a565b36916126be565b8181519101205f80600254905b81811061152b575061142461140e8361279a565b9261141c60405194856125b9565b80845261279a565b8285019390601f19013685375f905f5b8381106114865786858760405192839281840190828552518091526040840192915f5b82811061146657505050500390f35b83516001600160a01b031685528695509381019392810192600101611457565b61148f81612743565b60018060a01b0391549060031b1c16805f525f885260405f208360ff600c830154169182611504575b50506114c8575b50600101611434565b85939193518210156114f057816114e9918960019460051b89010152612778565b92906114bf565b634e487b7160e01b5f52603260045260245ffd5b600491925061151d906101536040518094819301612612565b89815191012014838a6114b8565b61153481612743565b60018060a01b0391549060031b1c165f525f855260405f208460ff600c83015416918261157f575b505061156b575b6001016113fa565b91611577600191612778565b929050611563565b6004919250611598906101536040518094819301612612565b86815191012014848761155c565b346100ea5760203660031901126100ea576004356001600160a01b03818116918290036100ea57602091604051917f000000000000000000000000000000000000000000000000000000000000000016148152f35b346100ea5760203660031901126100ea576004356001600160a01b038116908190036100ea57805f52600160205260ff60405f2054161561036d575f525f602052606060405f20610180604051916116528361259d565b604051611663816101538185612612565b8352604051611679816101538160018601612612565b6020840152604051611692816101538160028601612612565b60408401526040516116ab816101538160038601612612565b848401526040516116c3816101538160048601612612565b60808401526040516116dc816101538160058601612612565b60a08401526040516116f5816101538160068601612612565b60c084015260405161170e816101538160078601612612565b60e0840152604051611727816101538160088601612612565b610100840152604051611741816101538160098601612612565b610120840152600a810154928361014082015260ff600c600b84015493846101608501520154161515928391015260405192835260208301526040820152f35b346100ea575f3660031901126100ea576117996128f1565b6001600160a01b03806117aa612920565b165f52600160205260ff60405f2054161561036d576117c7612920565b16805f525f60205260405f20600c8101805460ff81161561182b5760ff19169055600b429101557fe73be80e107f661162e3ba617cba0149e57d12f70ff385e0c8db64a47dab4ec86020604051428152a260015f8051602061297a83398151915255005b60405163f7bd660760e01b8152600490fd5b346100ea5761184b366124b7565b610200526101e0919091529b909a9199929893979496949392919061186e6128f1565b6001600160a01b0361187e612920565b165f52600160205260ff60405f2054161561036d5761189f8e8236916126be565b602081519101207f99b6c68d677d3cdb82a74f6b2505208e25a692638accf1d7a62669954fe08d9a81141590816120da575b816120af575b81612084575b506110ee5782156110dc5784156110dc5786156110dc576001600160a01b03611904612920565b169d8e5f525f60205260405f20610220526001600160401b038211610ba8576119438261193760016102205101546125da565b600161022051016126f4565b5f90601f83116001146120115761197092915f91836120065750508160011b915f199060031b1c19161790565b60016102205101555b6001600160401b038211610ba8576119a78261199b60036102205101546125da565b600361022051016126f4565b5f90601f8311600114611f93576119d492915f9183611f885750508160011b915f199060031b1c19161790565b60036102205101555b6001600160401b038211610ba857611a0b826119ff60046102205101546125da565b600461022051016126f4565b5f90601f8311600114611f1557611a3892915f9183611f0a5750508160011b915f199060031b1c19161790565b60046102205101555b6001600160401b038211610ba857611a6f82611a6360056102205101546125da565b600561022051016126f4565b5f90601f8311600114611e9757611a9c92915f9183611e8c5750508160011b915f199060031b1c19161790565b60056102205101555b6001600160401b038211610ba857611ad382611ac760066102205101546125da565b600661022051016126f4565b5f90601f8311600114611e1957611b0092915f9183611e0e5750508160011b915f199060031b1c19161790565b60066102205101555b6001600160401b038211610ba857611b3782611b2b60076102205101546125da565b600761022051016126f4565b5f90601f8311600114611d9b57611b6492915f9183611d905750508160011b915f199060031b1c19161790565b60076102205101555b6001600160401b036101e05111610ba857611ba16101e051611b9560086102205101546125da565b600861022051016126f4565b5f90601f6101e05111600114611d1557611bd9915f916101e051611d0a575b50506101e051908160011b915f199060031b1c19161790565b60086102205101555b60096102205101906001600160401b036102005111610ba857611c1261020051611c0c84546125da565b846126f4565b5f90601f6102005111600114611c9e57611c4a915f9161020051611c93575b505061020051908160011b915f199060031b1c19161790565b90555b42600b6102205101557f03754aecf8745159503d95ad9d4b5e5ec503371279ddc036d4ac93cd953f9de26020604051428152a260015f8051602061297a83398151915255005b013590508480611c31565b601f19610200511691835f5260205f20925f5b818110611cf257506102005111611cd6575b505050600161020051811b019055611c4d565b5f1960f86102005160031b161c19910135169055828080611cc3565b91936020600181928787013581550195019201611cb1565b013590508480611bc0565b600861022051015f5260205f20915f5b6101e051601f19168110611d7857506101e051601f19811610611d5c575b50505060016101e051811b016008610220510155611be2565b5f1960f86101e05160031b161c19910135169055828080611d43565b90926020600181928686013581550194019101611d25565b0135905086806106ba565b600761022093929351015f5260205f20905f935b601f1984168510611df6576001945083601f19811610611ddd575b505050811b016007610220510155611b6d565b01355f19600384901b60f8161c19169055858080611dca565b81810135835560209485019460019093019201611daf565b0135905088806106ba565b600661022093929351015f5260205f20905f935b601f1984168510611e74576001945083601f19811610611e5b575b505050811b016006610220510155611b09565b01355f19600384901b60f8161c19169055878080611e48565b81810135835560209485019460019093019201611e2d565b013590508a806106ba565b600561022093929351015f5260205f20905f935b601f1984168510611ef2576001945083601f19811610611ed9575b505050811b016005610220510155611aa5565b01355f19600384901b60f8161c19169055898080611ec6565b81810135835560209485019460019093019201611eab565b013590508c806106ba565b600461022093929351015f5260205f20905f935b601f1984168510611f70576001945083601f19811610611f57575b505050811b016004610220510155611a41565b01355f19600384901b60f8161c191690558b8080611f44565b81810135835560209485019460019093019201611f29565b013590508e806106ba565b600361022093929351015f5260205f20905f935b601f1984168510611fee576001945083601f19811610611fd5575b505050811b0160036102205101556119dd565b01355f19600384901b60f8161c191690558d8080611fc2565b81810135835560209485019460019093019201611fa7565b013590505f806106ba565b600161022093929351015f5260205f20905f935b601f198416851061206c576001945083601f19811610612053575b505050811b016001610220510155611979565b01355f19600384901b60f8161c191690558f8080612040565b81810135835560209485019460019093019201612025565b7f4ab540f3b48a5642db7857d855bffddcb48101cf7d35ca6d25a02942cf50406b915014158f6118dd565b7f47752fdd90f8daf9841c35309fc658e2ea9f70cc656fd1f59abaf6597e09e0e581141591506118d7565b7f70b48f1a5f20b0751b1d0cc10b042a31094cfb3944ce5ab7a3cbfbfcb58c590681141591506118d1565b346100ea5760203660031901126100ea576004356001600160a01b038116908190036100ea575f61018060405161213b8161259d565b60608152606060208201526060604082015260608082015260606080820152606060a0820152606060c0820152606060e08201526060610100820152606061012082015282610140820152826101608201520152805f52600160205260ff60405f2054161561036d575f525f60205260405f2060ff600c604051926121bf8461259d565b6040516121d0816101538185612612565b84526040516121e6816101538160018601612612565b60208501526040516121ff816101538160028601612612565b6040850152604051612218816101538160038601612612565b6060850152604051612231816101538160048601612612565b608085015260405161224a816101538160058601612612565b60a0850152604051612263816101538160068601612612565b60c085015260405161227c816101538160078601612612565b60e0850152604051612295816101538160088601612612565b6101008501526040516122af816101538160098601612612565b610120850152600a810154610140850152600b81015461016085015201541615156101808201526040518091602082526101806123e16123c96123b161239a61238461236e61235861234261232c6123168c6101c08d51916101a060208201520190612465565b60208c01518d8203601f190160408f0152612465565b60408b01518c8203601f190160608e0152612465565b60608a01518b8203601f190160808d0152612465565b60808901518a8203601f190160a08c0152612465565b60a0880151898203601f190160c08b0152612465565b60c0870151888203601f190160e08a0152612465565b60e0860151878203601f1901610100890152612465565b610100850151868203601f1901610120880152612465565b610120840151858203601f1901610140870152612465565b9161014081015161016085015261016081015182850152015115156101a08301520390f35b346100ea5760203660031901126100ea576004356001600160a01b03811691908290036100ea576020915f526001825260ff60405f20541615158152f35b5f5b8381106124555750505f910152565b8181015183820152602001612446565b9060209161247e81518092818552858086019101612444565b601f01601f1916010190565b9181601f840112156100ea578235916001600160401b0383116100ea57602083818601950101116100ea57565b906101006003198301126100ea576001600160401b0390600480358381116100ea57846124e591830161248a565b949094936024358181116100ea57826124ff91850161248a565b949094936044358381116100ea578461251991830161248a565b949094936064358181116100ea578261253391850161248a565b949094936084358381116100ea578461254d91830161248a565b9490949360a4358181116100ea578261256791850161248a565b9490949360c4358381116100ea578461258191830161248a565b9490949360e4359081116100ea57612599920161248a565b9091565b6101a081019081106001600160401b03821117610ba857604052565b90601f801991011681019081106001600160401b03821117610ba857604052565b90600182811c92168015612608575b60208310146125f457565b634e487b7160e01b5f52602260045260245ffd5b91607f16916125e9565b80545f9392612620826125da565b918282526020936001916001811690815f146126845750600114612646575b5050505050565b90939495505f92919252835f2092845f945b83861061267057505050500101905f8080808061263f565b805485870183015294019385908201612658565b60ff19168685015250505090151560051b010191505f8080808061263f565b6001600160401b038111610ba857601f01601f191660200190565b9291926126ca826126a3565b916126d860405193846125b9565b8294818452818301116100ea578281602093845f960137010152565b601f821161270157505050565b5f5260205f20906020601f840160051c83019310612739575b601f0160051c01905b81811061272e575050565b5f8155600101612723565b909150819061271a565b6002548110156114f05760025f527f405787fa12a823e0f2b7631cc41b3ba8828b3321ca811111fa75cd3aa3bb5ace01905f90565b5f1981146127865760010190565b634e487b7160e01b5f52601160045260245ffd5b6001600160401b038111610ba85760051b60200190565b519081151582036100ea57565b60018060a01b0380911690815f526020916001835260ff60405f20541615612885575f835260ff600c60405f200154161561288557829060246040518094819363fd9d522160e01b835260048301527f0000000000000000000000000000000000000000000000000000000000000000165afa918215610362575f9261284f575b50501561284b57600190565b5f90565b90809250813d831161287e575b61286681836125b9565b810103126100ea57612877906127b1565b5f8061283f565b503d61285c565b5050505f90565b81601f820112156100ea5780516128a2816126a3565b926128b060405194856125b9565b818452602082840101116100ea576128ce9160208085019101612444565b90565b908060209392818452848401375f828201840152601f01601f1916010190565b5f8051602061297a833981519152600281541461290e5760029055565b604051633ee5aeb560e01b8152600490fd5b601436101580612947575b156129435760131936013681116100ea573560601c90565b3390565b50337f00000000000000000000000000000000000000000000000000000000000000006001600160a01b03161461292b56fe9b779b17422d0df92223018b32b4d1fa46e071723d6817e2486d003becc55f00a264697066735822122056089235a86a8bad3ea6c50e84318a8ab1f35cbc420e7c371b7979c9c06d563764736f6c63430008180033","linkReferences":{}},"methodIdentifiers":{"deactivateProfile()":"20a17bca","getBasicInfo(address)":"d401defe","getHospitalByIndex(uint256)":"7fed33ff","getHospitalsByCity(string)":"5d8ffc76","getProfile(address)":"0f53a470","getProfileMetadata(address)":"403e2707","getTotalHospitals()":"eb690f56","hasProfile(address)":"a787c80b","hospitalRegistry()":"69b80fc9","isHospitalActive(address)":"8caa97ed","isTrustedForwarder(address)":"572b6c05","profileExists(address)":"05cfa06f","reactivateProfile()":"75db7721","setProfile(string,string,string,string,string,string,string,string)":"95dd6894","trustedForwarder()":"7da0a877","updateProfile(string,string,string,string,string,string,string,string)":"140af853"},"id":23}